:020000040040BA
:10000000484E4020CD104000CB104000CB104000A7
:10001000CB104000CB104000CB104000000000008F
:10002000000000000000000000000000CB104000B5
:10003000CB10400000000000CB104000CB1040006F
:10004000CB104000CB104000CB104000CB10400044
:10005000CB104000CB104000CB104000CB10400034
:10006000CB104000000000004D0D4000610D40002D
:10007000750D4000CB104000CB104000CB1040006D
:10008000890D40009D0D4000CB104000CB1040007A
:10009000CB104000CB104000CB104000E56E40007C
:1000A000CB104000CB104000CB104000CB104000E4
:1000B000CB104000CB104000CB104000CB104000D4
:1000C000CB104000CB104000CB104000CB104000C4
:1000D000CB104000CB104000CB104000B96740006F
:1000E000CB104000CB104000CB104000CB104000A4
:1000F000CB104000CB104000CB104000CB10400094
:10010000CB104000CB104000CB104000CB10400083
:10011000CB104000CB1040000000000000000000A9
:10012000CB104000CB104000CB104000CB10400063
:10013000CB104000CB104000CB104000CB10400053
:10014000CB104000CB104000CB104000CB10400043
:10015000CB104000CB104000CB104000CB10400033
:10016000CB104000CB10400010B5054C237833B9BC
:10017000044B13B10448AFF300800123237010BD7A
:10018000E009402000000000B0C240000C4B43B129
:100190000C480D4910B5AFF300800C48036823B933
:1001A00010BD0A48036833B97047094B002BF7D0DC
:1001B000BDE810401847064B002BF5D0184700BF8C
:1001C00000000000B0C24000E4094020B0C240007E
:1001D0000000000038B50C4601212046104B98471E
:1001E0000C20104B9847C0B10146012303704460B6
:1001F00000254570856020460B4B98470B492046EB
:100200000B4B98470B4920460B4B98472A460B4906
:1002100020460B4B9847284638BD4FF0FF3038BD7D
:10022000CD2F4000F1244000053040007D03400008
:100230000930400045024000133040003D044000BA
:100240001D30400018B108B5014B984708BD7047F4
:100250008923400010B50B4B98470B4B186028B111
:1002600040F6B83209490A4B984700B110BD064C18
:10027000FF212068074B984720600749074B9847A4
:10028000F4E700BFD9384000FC09402064A74000D3
:10029000692D4000212E4000D5014000193040005A
:1002A0002DE9F0478C686CB36289B0F866309342F0
:1002B00028D30F460646DFF86080DFF86090144DC3
:1002C0000EE02046A8470028FBD051463046114B8F
:1002D0009847BC688CB16289B6F86630934211D3F6
:1002E000012361683046C04748B9B4F80AA02068C5
:1002F000B8600028E5D0C847E3E7BDE8F087B0F173
:10030000FF3F01D0BDE8F087BC60BDE8F08700BFCB
:1003100061284000312F4000C9524000772A400038
:1003200038B504460D4600210D4B98470021204664
:100330000C4B9847002120460B4B98470021204644
:100340000A4B9847002211462046094B984715B1A1
:100350002846084B98472046074B984738BD00BFB2
:10036000053040000F30400009304000133040009D
:100370001D304000892340002D394000F8B5054666
:100380000F4692B11C4616461BBB0378012B27D0A3
:10039000022B32D011893846214B98470023AB609D
:1003A0003046204B98472046F8BD032303708368EE
:1003B0004BB11D4938461D4B9847294638461C4BC2
:1003C00098470020F8BD014638461A4B9847002050
:1003D000F8BD002383601046124B98472046F8BDB5
:1003E00002230370AA6010493846104B98472946EB
:1003F00038460F4B98472046F8BD806820B111461B
:100400000D4B98472046F8BDAA6007493846074B70
:10041000984729463846064B98472046F8BD00BF06
:10042000312F400061284000950440000F3040000B
:10043000A102400021034000D12A400038B50D46FA
:10044000B8B1044683684BB10D4928460D4B984717
:10045000214628460C4B9847002038BD0378032BD3
:1004600001D0002038BD01462846084B984700209F
:1004700038BD0846064B98476FF0090038BD00BFED
:10048000950440000F304000A102400021034000CD
:100490005937400038B504460D4600234370836841
:1004A0004BB109492846094B984721462846084B35
:1004B0009847002038BD0378032BFAD1014628461F
:1004C000044B9847F5E700BF950440000F3040000B
:1004D000A10240002103400010B51048104B98477E
:1004E0003E2100200F4B98470F4CA0470028FCD01E
:1004F0000E4B98470E4A0F4B9A620F4CA0470028AC
:10050000FCD002200D4B984710200D4B98470D4B07
:1005100098470D48024B984710BD00BF80D1F008A6
:10052000A11240004D0E4000A10E4000B10E40004F
:10053000013F182000060E40C10E4000B10D4000E2
:10054000E90D400095114000C06878042DE9F041A4
:1005500080B90C469046002A0FDD8F18084E094DD1
:10056000306821462B6898470134BC42F8D1404698
:10057000BDE8F0814FF0FF38F9E78046F7E700BFAC
:10058000943940208C3940200138022815D82DE9B3
:10059000F0410E4614469AB10D46DFF838800C4FF4
:1005A000D8F8000015F8011B3B68984700280ADBC3
:1005B000A81B013CF4D1BDE8F0814FF0FF3070473B
:1005C0001046BDE8F0814FF0FF30BDE8F08100BF7C
:1005D000903940209439402010B54FF400423C4BF4
:1005E0005A60A3F545633B4A5A60A2F580725A608F
:1005F000BFF34F8FBFF36F8F374BD3F8902222F0AA
:100600000102C3F89022D3F8942222F00102C3F829
:100610009422BFF34F8FBFF36F8F0A202F4CA04758
:100620000B20A0470C20A0471020A0471120A04776
:100630002B4B4FF400021A61C3F8A0201A6329491A
:100640004FF400720A61C1F8A0200A635A61C3F82E
:10065000A0205A66C3F890205A651A62C3F8842015
:10066000196F21F400711967596F21F400715967EE
:10067000C3F8C020C3F8D420C3F8B0204FF4001250
:100680001A66C3F890205A655A62C3F88020196F21
:1006900021F400111967596F21F4001159675A604C
:1006A000114AD2F8143143F01003C2F814310F4B41
:1006B00010221A66C3F890205A655A62C3F8802047
:1006C000196F11431967596F114359675A6010BD6B
:1006D00050180E400C08005A00ED00E0D10E40000A
:1006E000000E0E4000120E400080084000100E4028
:1006F000F0B583B004460F461646036843F0100376
:10070000036001AB0122364DA84758B9019B13F095
:10071000040F0DD1236823F010032360FF23184634
:1007200003B0F0BD0346226822F010022260F6E713
:100730002EB9236823F0100323603346EFE76B469E
:100740001E2239462046264DA847034650B9019A35
:1007500012F4805F0BD0009911F0050F0CBF01213E
:10076000002105E0226822F010022260D7E7012173
:1007700012F4005F03D0009810F0020F27D112F49A
:10078000006F03D0009A12F0010F11D191B1012234
:10079000616841F001016160A2B1626842F0020249
:1007A0006260226822F010022260B8E71A46EFE782
:1007B0001A4600E00122616821F001016160EBE767
:1007C0001A46F8E7626822F002026260E9E712F472
:1007D000006FEBD0009A12F0010FF1D11A46D7E763
:1007E000510B40002DE9F04182B004460D460368EC
:1007F00043F01003036001AB00225D4EB04740B1EF
:100800000346226822F010022260184602B0BDE8BA
:10081000F081019B23F4B04343F4806301930022F1
:1008200029462046534EB047034620B1226822F0A5
:1008300010022260E9E740F2E11304222946204633
:100840004C4EB047034620B1226822F010022260CD
:10085000DBE701AB002229462046454EB047034660
:1008600020B1226822F010022260CEE7019B43F4FF
:10087000445301930022294620463E4EB04703468A
:1008800020B1226822F010022260BEE7019B23F40F
:10089000806343F400730193002229462046354EBD
:1008A000B0470346B0B9344E4FF00108304F01ABAA
:1008B000424629462046B847034680B9019B13F0BB
:1008C000200F11D1013EF2D1236823F010032360E1
:1008D00001239AE7226822F01002226095E722683D
:1008E00022F01002226090E76B460522294620463E
:1008F0001F4DA847034680B9009A12F4807F13D198
:1009000012F0400F2CD112F0800F08BF024609D11F
:10091000616821F0010161600BE0226822F01002A1
:10092000226072E7024600E00122616841F00101A5
:100930006160BAB1626842F002026260E26822F06D
:100940000102E2600D4A116841F00801116011686E
:1009500041F004011160226822F01002226054E785
:100960000122D5E7626822F002026260E6E700BF7A
:10097000510B4000B10B400040420F000000054009
:100980002DE9F04383B005468946036843F0100320
:1009900003604FF4004302AE46F8043D00220E4CC3
:1009A000A0470A244FF000080C4F33464246494600
:1009B0002846B847013C14BF01200020019B13F4D6
:1009C000004F01D00028F0D12B6823F010032B60DA
:1009D00003B0BDE8F08300BFB10B4000510B4000F5
:1009E0002DE9F04385B0064688461546012400945B
:1009F000002322464FF480614648474FB847474F8F
:100A000022464FF400213846454CA04700224FF0C3
:100A100000513846A04740F2FF324FF00061414894
:100A2000414B984741464148414B9847414B9D4275
:100A30005DD8414B9D420FD8404B9D423ED8404B24
:100A40009D423ED83F4B9D423ED83F4B9D428CBF7E
:100A50004FF48023002301E04FF4A013726822F4C6
:100A6000E012726075681D43756004AB002243F8A4
:100A7000042D326842F010023260022241463046B4
:100A8000324CA047039B222B35D0444620254FF003
:100A900002092E4F013404F01F0403AB4A462146DD
:100AA0003046B847039B222B11D06B1E13F0FF0575
:100AB000F0D1336823F01003336018E04FF4801353
:100AC000CCE74FF44023C9E74FF40023C6E733686F
:100AD00023F01003336003AB0122214630461B4D47
:100AE000A847A04503D041463046114B9847002007
:100AF00005B0BDE8F083336823F010033360B8F12C
:100B0000FF0FF4D003AB0122414630460F4CA04703
:100B1000EDE700BF00120E40CD0C4000000E0E406D
:100B2000970C400000140E40050C400000000540EA
:100B300081094000001C4E0E00688909000E27073D
:100B400000B4C404005A6202002D3101510B400070
:100B500010B483B0846814F0040FFBD0920402F444
:100B6000F804114A2243C90501F078610A4342633F
:100B7000002201920D49826812F0040F07D1019AF8
:100B800001320192019A8A42F5D9012007E0826878
:100B900012F0040FFBD0426B92B21A60002003B037
:100BA0005DF8044B704700BF000002603F420F0039
:100BB00010B483B0846814F0040FFBD0920402F4E4
:100BC000F8040E4A2243C90501F078610A439BB23A
:100BD0001A43426300230193094A836813F0040F08
:100BE00007D1019B01330193019B9342F5D9012069
:100BF00000E0002003B05DF8044B70470000025095
:100C00003F420F004264B1F1C05F3AD013D8B1F156
:100C1000006F25D0B1F1805F0AD1036F13430367E2
:100C2000436F416F0B4023EA020343674260704702
:100C30000029FBD17047B1F1205F21D009D8B1F173
:100C4000005FF3D1036F13430367436F134343679D
:100C5000ECE7B1F1405F13D0B1F1605F10D0E5E790
:100C600010B4016F046FD34321401C461940016743
:100C7000436F416F0B402340436742605DF8044B74
:100C80007047036F016F0B4023EA02030367436F52
:100C900013434367CAE7416412F0010F0DD10166A7
:100CA00012F00A0F0BD0016212F0020F09D112F0FC
:100CB000080F08D0C0F8841005E04166F0E74162F3
:100CC000F2E7C0F8801041610160704710B4019CE8
:100CD00041644CB901664BB101654AB94163016198
:100CE00001605DF8044B70474166F4E74165F4E745
:100CF0000163F4E7C06C7047806C70472DE9F041E8
:100D0000044688460E4B9847054620460D4B9847AB
:100D1000054013D00C4C04F1600603E0B4420DD042
:100D200010345DB120684045F8D161682942F5D0A2
:100D3000E3689847636825EA0305EFE7BDE8F081BB
:100D4000F50C4000F90C4000000A402008B50A21CB
:100D50000148024B984708BD000E0E40FD0C4000B4
:100D600008B50B210148024B984708BD00100E4002
:100D7000FD0C400008B50C210148024B984708BD06
:100D800000120E40FD0C400008B510210148024B36
:100D9000984708BD00140E40FD0C400008B5112115
:100DA0000148024B984708BD00160E40FD0C40005C
:100DB000032811D0042812D002280CBF4FF48071F0
:100DC0000021084A136B23F440730B431363936EA3
:100DD00013F0080FFBD070474FF44071F1E74FF468
:100DE0000071EEE700060E40174A136B23F0700304
:100DF00018431063936E13F0080F0AD14FF4006389
:100E000011498A6E12F0080F03D1013BF9D101207C
:100E100070470D4A136B23F0030343F0020313637F
:100E2000936E13F0080F0AD14FF4006306498A6EDF
:100E300012F0080F05D1013BF9D1012070470020C5
:100E400070470020704700BF00060E40A0B90E4852
:100E5000036A090289B20D4A1A400D4B1343194324
:100E600001620246936E13F0010FFBD0064A116A2D
:100E7000084B0B431362704703490B6A064A1A403A
:100E8000064B13430B62704700060E40FCFFC8FF81
:100E90000100370000003701FCFFC8FE02003701E7
:100EA000024B986E00F48030704700BF00060E4081
:100EB0004FF00052014B9A62704700BF00060E408F
:100EC000024B986E00F00200704700BF00060E4013
:100ED00000F07F00054BC3F80C01D3F80C2142F061
:100EE0001022C3F80C210020704700BF00060E40FE
:100EF00010B489014318022444504FF0FF31996225
:100F0000196A5A605DF8044B704789010523435004
:100F1000704700EB8111CA61704700EB81114A6292
:100F20007047F0B486B0022401940824029420246F
:100F30000394802404940A9CE40B0594B0EB510FB5
:100F400014D84C0CA04217D2012501AF57F8254008
:100F5000B1FBF4F4260C84420AD386420DD9013544
:100F6000052DF3D1002006B0F0BC70470020FAE751
:100F70000020F8E70120F6E700252AB106A901EBD9
:100F8000850151F8141C1160002BF3D01D60012065
:100F9000E9E7436913F0020F02D0C16100207047F6
:100FA00001207047436913F0010F03D083690B7070
:100FB000002070470120704710B40B01934214D9F0
:100FC000C9004B0803EBC202B2FBF1F2D3085C1E6E
:100FD0004FF6FE718C4201D9012017E0416841F4BF
:100FE000002141600CE0012010E0590801EBC20231
:100FF000B2FBF3F2D3085C1E4FF6FE718C42F2D8BE
:10100000120402F4E0221A43026200205DF8044B4D
:1010100070470000084BC0F8E4300023436043628F
:10102000836288230360242303604FF4807303608A
:101030004FF40023036070470041535570B50546D7
:101040000C4616460F4B984700220F4B1A60A4B16E
:101050003246216828460D4B9847024678B96368A6
:10106000A1680B4321690B43E1680B4306490B6000
:1010700069680B436B60104670BD0122FBE70122DB
:10108000F9E700BF15104000700A4020B90F40007A
:10109000402303607047102303607047436913F0D7
:1010A000020F04D0C1F30801C16100207047012084
:1010B0007047436913F0010F05D08369C3F3080338
:1010C0000B600020704701207047FEE700B583B039
:1010D000254B264A9A4210D0254B234A9A420CD2DD
:1010E000013B9B1A23F00303043313441F4951F8B7
:1010F000040B42F8040B9A42F9D11E4B1E4A9A4245
:101100000AD2013B9B1A23F003030433134400214A
:1011100042F8041B9342FBD1184A194B23F07F037A
:101120009360EFF31083B3FA83F35B09019372B614
:10113000BFF35F8F0022134B1A700199124A136894
:1011400043F470031360BFF34F8FBFF36F8F29B168
:1011500001220C4B1A70BFF35F8F62B60B4B98479E
:101160000B4B9847FEE700BF00004020B0C2400094
:10117000E0094020484A4020E009402000ED00E01E
:10118000000040000000402088ED00E0397240007F
:101190005D7140003B4B1B6B03F00303012B1DD023
:1011A00083B1022B36D0374B1B6B03F07003702BCF
:1011B0005FD0344B1A6B3449C2F302120B68D34030
:1011C0000B607047314B5B6913F0800F14BF4FF415
:1011D00000424FF4FA422C4B1A60E4E7294B1B6A99
:1011E00013F0807F03D02A4A274B1A60DBE7294A95
:1011F000254B1A60234B1B6A03F07003102B05D09C
:10120000202BD0D1224A204B1A60CCE7224A1E4B19
:101210001A60C8E71B4B1B6A13F0807F16D01C4A6C
:10122000194B1A60174B1B6B03F00303022BBAD147
:10123000144A916A926A1448C1F30A41036801FB97
:101240000333D2B2B3FBF2F30360ACE7114A0E4BA7
:101250001A600C4B1B6A03F07003102B05D0202B77
:10126000E0D10B4A084B1A60DCE70B4A064B1A60C8
:10127000D8E7054A13680949A1FB03135B0813600B
:10128000704700BF00060E400400402010180E40BA
:10129000001BB70000093D0000127A00ABAAAAAA01
:1012A000164B984213D9164B984215D9154B9842B4
:1012B00016D9154B984217D9144B984218D9144B8C
:1012C000984294BF134A144A144B1A6070474FF067
:1012D0008062124B1A607047114A104B1A607047B7
:1012E000104A0E4B1A6070470F4A0C4B1A60704739
:1012F0004FF00422094B1A60704700BFBFF35E0134
:101300007FE7BD023FDB1C04FFCE7B05BFC2DA06D0
:101310007FB639080005000400060004000C0E40EA
:101320000001000400020004000300040A4B1B68D3
:1013300053B1094B1B681A180849914208DB104643
:10134000054A106018467047054A034B1A60F0E7DB
:101350004FF0FF30704700BF740A4020FCFF45206B
:10136000485040204FF0FF3070474FF400534B601F
:10137000002070470120704700207047030A43EAAD
:10138000002080B27047030A43EA002080B2704711
:10139000030E43EA0063020202F47F021343000AD1
:1013A00000F47F401843704708B5014B984708BDCB
:1013B000911340002DE9F04385B0804689461546DB
:1013C000002224210120224B984700283DD00646C8
:1013D000D8F80470446884F8009065700025257181
:1013E0006571A571E571D0F804C0D8F80430D3F860
:1013F00000E058689968D3F80C80CCF808E0CCF885
:101400000C00CCF81010CCF81480D3F810E0586918
:101410009969CCF818E0CCF81C00CCF82010A57025
:10142000E570718920460B4B98476080FB6804AAE1
:1014300042F8043D012301930095FF2329463046DD
:10144000054CA0473046054B984705B0BDE8F083F2
:10145000B9284000ED164000591A400061284000AC
:101460002DE9F04385B00646884647683C7804F08D
:101470000F04A40065422DB22946454B9847A0B9F8
:101480003389032B11D973681B78082B6FD1414B1B
:10149000186800F0F00941463F4B984758B9B9F138
:1014A000E00F08D03389072B09D830463B4B9847CB
:1014B00005B0BDE8F0833046384B9847F8E7304632
:1014C000374B984770B924B222213046304B9847A9
:1014D00030B3214630462E4B984738B130462F4B1B
:1014E0009847E5E730462D4B9847E1E700223189E0
:1014F00002202C4B984781460028EFD031462A4BDA
:1015000098470028EAD1D9F8047029464846204B6C
:1015100098470028E2D13046204B98474E4606E0D7
:101520006FF0210130461A4B98470028D6D17268D7
:10153000184B1B68FB601D4B1B683B61002313703D
:1015400053884FF6F6718B428CBF093308335380B2
:10155000FF233B720023BB72FB7214213846144BED
:101560009847788121463046094B984718B1304654
:101570000A4B98479CE7CDF808800123019300228D
:101580000092FF23034930460A4CA047EFE700BF13
:10159000D5274000A0394020991A4000612840001A
:1015A000FD164000B9284000E92A40009839402043
:1015B000ED1640005D19400008B50A460321014BB5
:1015C000984708BDB513400008B50A460B21014BEA
:1015D000984708BDB513400070B483B00023ADF840
:1015E000063010F0010630D099422EDD451C0378FC
:1015F0008DF807300139012929DD28460B460022E4
:1016000030F8024B2244023B012BF9DC023921F075
:10161000010302331D4401F00101002902DD2B7892
:101620008DF80630BDF80600024490B200EB12427D
:1016300090B200EB124026B103029BB2C0F3072028
:10164000184380B203B070BC70470546D3E7002250
:10165000E3E700002DE9F0478A46914698460028C6
:101660003ED00546002634461E4F01E02D689DB150
:1016700069896868B8470444A0B200EB14446B89D8
:1016800013F0010FF2D0C6F10106F6B223029BB2AD
:10169000C4F307241C43E9E726B123029BB2C4F339
:1016A00007241C43DAF80020D9F80030180C10FA8F
:1016B00083F010FA82F000EB1240044440460A4DD9
:1016C000A8470444BDF82000A847204484B204EB96
:1016D0001044A0B200EB1440C04380B2BDE8F087D4
:1016E0000024DFE7D91540007D13400008B5024B08
:1016F0009847C04380B208BDD9154000F8B518B36B
:10170000054600263446114F01E02D689DB16989D8
:101710006868B847204484B204EB10446B8913F026
:10172000010FF2D0C6F10106F6B223029BB2C4F358
:1017300007241C43E9E726B123029BB2C4F3072424
:101740001C43E04380B2F8BD0024FAE7D9154000FD
:101750000E4B1B6873B90E4B1B6833B193F82D20E9
:1017600002F00102002A08BF0023184670471B68D8
:10177000002BF0D093F82D2012F0010FF7D0026863
:1017800059684A4099680A42F1D1EEE7BC494020C5
:10179000C04940202DE9F84F0546D0F8048098F85C
:1017A00000301A09042A04D05C4B98470020BDE899
:1017B000F88F0F4603F00F039C00B8F80200584B57
:1017C000984706466B89A34202D32B89834203D2F2
:1017D0002846524B9847E9E721464046514B9847E7
:1017E000A0B931462846504B9847D8F810204F4BA7
:1017F0001A60D8F80C204E4B1A603C460126DFF8E0
:101800002CA1DFF830B1DFF850910CE02846434BB3
:101810009847CBE7002E5ED0D9F80040BC4208BF05
:101820002468002694B194F82D3013F0010FF1D004
:1018300014F1040FEED06368002BEBD0DAF800004F
:10184000834203D02146D8470028E3D03946384B9D
:101850001868384B984700283FD1354B1B6803F078
:10186000F003E02B39D0002C3BD0B8F8063023F041
:10187000C0039BB23BB128462F4B98470546002832
:1018800094D0D0F804802D4B1F602D4BC3F80080FE
:10189000394628462B4B984758BB98F80930062BF9
:1018A00031D0112B21D0012B32D039461F4B186873
:1018B000204B984758B91D4B1B6803F0F003E02BF1
:1018C00005D0C5F80480022128461F4B98472846BA
:1018D000124B98470DE02468A0E728460F4B984725
:1018E00064E728460D4B984760E739462846174B72
:1018F00098470023114A1360114A13600C4A136081
:101900000A4A136052E739462846114B9847F0E7D8
:10191000394628460F4B9847EBE700BF6128400047
:1019200087134000ED164000012A4000A0394020F6
:1019300098394020991A4000091D40009C394020E8
:10194000A4394020812C4000B9154000B55D40000D
:10195000B146400061144000BC4940202DE9F04FE1
:1019600087B0054602919DF840809DF844B0129ED4
:101970000192002A57D09A4617461421324B9847B5
:1019800000285DD16C6884F808A084F809B03B6831
:1019900023619AB203924FEA13494523237084F8D6
:1019A00001804AEA0B2A4FEA082848EA03080AEBB2
:1019B000080B2889254FB847824660800023A37111
:1019C000E371DFF89080B8F80000B847A080B8F85D
:1019D00000300133A8F80030029B0BB11B6803BB39
:1019E0007368E360E2681BFA82F303EB1243039A25
:1019F00013444B449A4450441FFA80FA0AEB1040B7
:101A000000EB1040C0436081B38C13B12A899A4225
:101A100010D87369019A29463046984707B0BDE847
:101A2000F08FE360DEE743681B6906AA42F8043DD5
:101A30000192E9E7019A31462846054B9847EDE7C0
:101A40006FF00100EAE700BFD52740007D1340009A
:101A50006D204000780A4020F0B585B005460E465E
:101A600014461F4610460A4B984770B102909DF8E5
:101A70002C3001939DF8283000933B462246314696
:101A80002846044CA04705B0F0BD6FF00300FAE70C
:101A9000511740005D194000431E13F1030F12D887
:101AA00091F82D3013F0020F0FD04B6898420ED0F2
:101AB0008A68434013420CD1D24332EA00030CBF80
:101AC000012000207047012070470020704700204F
:101AD00070470020704700002DE9F04F85B001915C
:101AE00003680DF1100C4CF8043D0C464FF0000853
:101AF000C146274F02F1010E4FF02E0B66469CF8AF
:101B0000003048469A4600E02846A7FB0A31C9083B
:101B100001EB8103AAEB4303451CEDB230330DF119
:101B2000100A82440AF8083C01F0FF0A0029EBD1B0
:101B300086F800900CF1010CADB108F101014245AD
:101B400021DD02AB1D18631E20449E1C15F80149BF
:101B500003F8014F984208D001317145F5D10020BA
:101B600005B0BDE8F08F4146264601F101088A42E2
:101B70000BDD741C86F800B004AB9C45BED100237D
:101B800033700198ECE70020EAE70020E8E700BFA7
:101B9000CDCCCCCC08B510220149024B984708BDEA
:101BA0007C0A4020D91A40002DE9F04781468A4638
:101BB00045686B689A8822B30024D9F804606EB136
:101BC000DFF894801F4F73681D683046C047044497
:101BD000A4B23046B8472E46002DF4D11A4B1B68EC
:101BE000994529D0D9F80030CAF800304946052077
:101BF000164B9847164A13881B1B13802046BDE8D6
:101C0000F0871B6843606A68034653F8081F5E68E4
:101C10009C68D868116056609460D0601969116141
:101C2000012128460B4B984728460B4B984784B216
:101C30002846044B9847C0E7D9F80020024B1A60A9
:101C4000D4E700BF61284000900A40208926400068
:101C50008C0A4020C9154000612A40002DE9F84354
:101C6000054688460026194FDFF8649022E00134CB
:101C7000B8B193F81FC0C27F944598BF18461A6840
:101C80008AB1194613465A697245F0D1D5F810C089
:101C90009A696245EBD1B3F80CC0AA889445E6D1A5
:101CA000EDE71846EBE708B1C8470644464509DAB0
:101CB000012C07DD3B682BB1D5F80CE00024214650
:101CC0002046E0E73046BDE8F88300BF900A402098
:101CD000A91B40000A4B186888B170B50024094E52
:101CE00004E005682146B047284638B1C37F002B81
:101CF000F7D0013BC37704460068F6E770BD704734
:101D0000900A4020A91B40002DE9F04F83B0074600
:101D10004668337803F00F03052B22D1F088A04CDE
:101D2000A04783467088A047019096F800A03846E7
:101D30009C4B984780469C4B1B8803440A2B06DC2F
:101D40009A4B1C68002C79D0F268002514E00146FB
:101D50003046974B984720B1934B1B8843440A2B3E
:101D6000EEDD3846934B98474FF0000801E12368B9
:101D70002546002B62D01C4663699342F7D1336934
:101D8000A1699942F3D1A189B3889942EFD1002C7E
:101D900053D0F088824B9847C0F30C00002800F025
:101DA0008480814B1A889044A3F80080F38813F054
:101DB000200F0CD1A37F43F00103A3770AF00F0A91
:101DC000019BA3EB8A0909EBCB0BA4F81CB07E683E
:101DD0007088DFF8CC91C84796F8008008F00F08AB
:101DE000A0EB88081FFA88F8F088C847C0F30C00F9
:101DF000C000D7F804C000238CF800308CF8013004
:101E00008CF802308CF80330ACF8040080441FFAE0
:101E100088F8ACF806806268002A00F09A8053685F
:101E200099888842C0F0AD8000F09780DA888242BD
:101E300000F293804FF0010E78E02C4605205E4BB7
:101E40009847814618B32022002148465B4B9847AB
:101E5000032389F81F30554B1A68C9F80020C3F8CE
:101E6000009032687568B068F168C9F80820C9F850
:101E70000C50C9F81000C9F814103269C9F81820BC
:101E8000B9F1000F3FF46DAF25464C4689E7414656
:101E90003046474B984780453FF763AF0520464B98
:101EA000984781460028CED15BE7E0893C4B9847B4
:101EB000C0F30C0000283FF474AF3268D6F804E099
:101EC000B068F168A260C4F80CE020616161326919
:101ED000A26166E7CCF80060002B56D0D988814219
:101EE0003BD89288424538D31F60A37F13F0010F7F
:101EF0003DD0BEF1000F3AD0606843689B88002B4C
:101F000035D1DCF80030002B5AD05B689988BCF8DA
:101F1000062091422BD11A68002A51D05268D988E4
:101F20009388994223D11346F5E713461E6876B38A
:101F3000726891888842CDD388420ED0D688864276
:101F40000BD8002BF1D0DB888B4218BF4FF0000E6E
:101F5000EBE74FF0010E6760C7E73846114B984733
:101F6000114A1388181A10803846124B98474FF0C0
:101F70000008404603B0BDE8F08F22680B4B1A60A2
:101F800058E0CCF800204FF0010E6760ADE7002B61
:101F9000E1D01F60DA88BCF804309A42E7D1A4E7A8
:101FA00087134000612A40008C0A4020900A40209C
:101FB0005D1C4000612840004926400045744000F7
:101FC000A38B1433A38347683E68234653F8082F36
:101FD000D3F804E09868D9683A60C7F804E0B860BC
:101FE000F9601A693A61A08B184B984778800023F2
:101FF000BB71FB71BB72FB7214213846144B9847BE
:102000007881D4F804807EB16FF0130BDFF854A010
:10201000DFF85490776859463046D04731464046FD
:10202000C8473E68002EF5D10A4B1B689C42A4D0DD
:1020300023682B6021460520074B98474046074BF5
:102040009847074A1388181A108092E77D134000BA
:10205000ED164000900A402089264000612A400089
:102060008C0A4020D5274000812A40002DE9F04FFE
:1020700089B004460390059106928E8CD0F804A096
:10208000BAF806003F4B9847C0F30C0B00F400531E
:1020900002932589143DADB2A6F114030193002BE0
:1020A000B8BF0733C3F3CF030493002D63D0DB0025
:1020B0009BB207934FF0140949E02C4600222146B9
:1020C0000120314B98470646002856D04B46224601
:1020D000416803982D4FB84781441FFA89F91421AC
:1020E00030462B4B984700283DD17368DAF8002022
:1020F000DAF80470DAF80800DAF80C101A605F6099
:102100009860D960DAF810201A6177684046DFF8E5
:102110008C80C047F88004F1140080B2C0477880FA
:102120000023BB72FB72142138461A4B9847788102
:1021300005984369069A314698473046164B9847AA
:102140002D1BADB2049B9B441FFA8BFB8DB1CBF3CF
:102150000C08029B43EA0808019BAB42ADDA48F445
:102160000058079CAAE730460B4B98474FF0FF30CA
:1021700005E0002003E0002001E04FF0FF3009B04F
:10218000BDE8F08F87134000B9284000E52B4000E0
:10219000D5274000ED164000612840007D13400027
:1021A00008B5064B9847064B9847064B9847064B91
:1021B0009847064B9847064B984708BD4D2340006B
:1021C000D1254000A1264000B15D4000652D4000B2
:1021D000D522400070B504460E46154606201B4B1E
:1021E0009847002830D00146002303608660C56010
:1021F0004460174B1D68A5B16868844213D3201A48
:1022000048602A68F2B15368984212D3486853680C
:10221000C01A486013688BB15C68A0420BD31A46A1
:10222000F4E7186070BD001B68600D60084B196012
:1022300070BD13462A465C68201A586013680B600C
:10224000116070BD2A46F9E770BD00BF4926400005
:10225000940A402008B50A4B1B6853B9094B1B6808
:1022600043B10122064B1A6000220749FA20074BAE
:10227000984708BD064B1B68002BF2D1F9E700BF59
:10228000980A4020CC49402095224000D5214000AA
:10229000E049402008B5094B9847094B1B682BB112
:1022A00000220849FA20084B984708BD074B1B68D5
:1022B000002BF5D10022064B1A6008BD953A40006C
:1022C000CC49402095224000D5214000E0494020E3
:1022D000980A402010B5002207494FF47A70074C45
:1022E000A0470022064941F28830A047054B984795
:1022F000054B186010BD00BF2D234000D5214000C4
:102300000D234000A16F40009C0A402008B5044BFB
:1023100098470022034941F28830034B984708BD93
:10232000C56040000D234000D521400008B5044B96
:102330009847002203494FF47A70034B984708BD31
:10234000D51C40002D234000D52140000A4B23F02E
:1023500003030A4A13604FF48051198000225A8007
:102360001A715A18064802600120107111805180BC
:10237000044A1360704700BFAB394020A40A4020D4
:10238000A80A4020A00A402000283BD00346214A4A
:102390001268904236D320490868834232D270B422
:1023A000A3F10801002403F8044C1C4C2468A1424A
:1023B00001D21A4C216033F8085C5419A1420ED0A6
:1023C000267966B9A0420AD01448006884421AD01F
:1023D000505B23F8080C505B10448C1A448033F88F
:1023E000060C1418A1420CD0257955B90B4D2D6857
:1023F000A9420BD033F8081C115233F8083C1A4498
:10240000508070BC704705480160E1E703490C60EB
:10241000F0E700BFA40A4020A80A4020A00A4020FC
:1024200003314FF6FC730B400C2B38BF0C23B3F574
:10243000805F52D82B4A126882422BD82A490968F9
:10244000884227D2F0B4A0F10804A41AA4B230F84C
:10245000085CA5F10801091B89B299423FD318D045
:1024600056193779DFB9555B04F108010B449BB26B
:102470001E4909688E420ED0D11800260E71D55221
:102480004C8020F8083CD15AB1F5805F01D00A4455
:102490005380F0BC7047D118144E3160ECE703F163
:1024A00014058D42F5D804F108010B449BB2D118F4
:1024B0000E4D2D68A94201D20C4D296000250D71E9
:1024C00030F8085CD5524C8020F8083CD15AB1F560
:1024D000805FDED00A445380DBE700207047002095
:1024E000D7E700BFA40A4020A80A4020A00A402045
:1024F000002861D0F0B5034603334FF6FC741C404E
:102500000C2C38BF0C24B4F5805F57D82D4B1F68B6
:102510002D4B19687B1A9BB2C4F58055AB424FDA3C
:102520006FF0070CA6460EE001230371254B1B68D4
:1025300098422FD00830F0BD034638E0034636E01D
:102540000388AB4236DAC8180279002AF8D1ACEB1E
:102550000302CE5A32447646A242F1D31436B24236
:10256000E2D304F108021A4492B28C1800252571B6
:1025700005888D5263800280012303718B5AB3F565
:10258000805FD3D019444A808742D3D10379002B8E
:10259000D2D003460D4A11688842CFD00A4A146847
:1025A0001B8823441A7912B18B42F9D10B46054A94
:1025B0001360BFE70020F0BD002070470020F0BD91
:1025C0000020F0BDA00A4020A40A4020A80A402014
:1025D0002DE9F047184F27F00307184EDFF860C0C9
:1025E000DFF860E006F1240A4FF0000915E0034629
:1025F000196058190132194693B29C42F7D8013C30
:10260000A4B204FB055304FB0574C8F800401F4442
:1026100004360EF1020E56450CD0B046C6F80090B6
:102620003CF8024F002CF3D0BEF800503B4600228D
:102630001146DDE7BDE8F087AF0A4020FC254020C9
:10264000E6A74000FCA74000082809D8094B53F82A
:1026500020301BB11968074A42F82010184670470D
:1026600010B5054B4FF4C77204490548054CA04707
:10267000FEE700BFFC25402068A74000A0A740005F
:10268000C0A74000897240000B4629B1034A52F8A6
:102690002010196042F82030704700BFFC25402010
:1026A00070470000F8B50446002927D00D460A6897
:1026B00043689A4211D0124B186858B1114F03E089
:1026C000C668B847304628B1026863689A42F7D0B6
:1026D000C068F8E70C4B1B682BB92B686360F8BD2A
:1026E000DB68002BF9D0002BFAD01A68002AF7D04B
:1026F00061688A42F4D12A681A60F1E70023EDE7A5
:10270000CC49402059374000D449402070B5044698
:1027100016461D46064B98472EB13368A36025B177
:102720002B68E36070BD0023F8E70023F9E700BFE2
:10273000A5264000F8B50446002545608560C560C3
:1027400080F82D50C561069D05620B4E35786F1CD3
:10275000377080F83050089D0561084DA847204625
:10276000079B984728B9064B1A6822601C602046D0
:10277000F8BD0020F8BD00BF202640200D274000F6
:10278000BC494020014B1860704700BFC049402041
:1027900090F82D3013F0010F14D110B5044643F01A
:1027A000010380F82D30C36903B1984794F82D30A8
:1027B00003F03003302B00D010BD211D2046024B0A
:1027C0009847F9E7704700BF0D61400000B1C16153
:1027D00070470000002933D00B46002830D010B5D8
:1027E000002911DB8CB2017B4268D1B1032918D0DA
:1027F000013989B2012927D8002B25DA4189A14264
:1028000024D3D21A426012E04C42A4B24289A242BE
:10281000E9D20F4B40F20F220E490F480F4CA04750
:10282000FEE7D21A00F110018A420BD342609BB23C
:1028300042891A444281028913440381002010BD59
:1028400000207047012010BD012010BD012010BDE7
:10285000F8A8400030A94000C0A74000897240009D
:102860002DE9F041F8B101460024114D4FF0070861
:10287000104E08E00820B04701E04046B047013460
:10288000E4B2394687B1CB89013B9BB2CB815BB9BE
:102890000F680B7B032BEDD0013B9BB2012BECD9D6
:1028A0000846A847EBE700242046BDE8F08100BFBA
:1028B00089234000892640002DE9F047032800F2D3
:1028C0009380DFE800F008020406222404E00E24CE
:1028D00002E0002400E0362417468846032A00F26E
:1028E0008580DFE802F0527272020820404B984760
:1028F000064600283DD00323037300230360031919
:10290000133323F003034360A0F80880033424F05A
:102910000304C4F5C0644445A8BF44464481012370
:10292000C381A5B2A8EB0505002D47DD82464FF017
:1029300008082F4F4FF003094046B8470446E0B15E
:1029400080F80C90002343730360CAF80000ABB218
:102950000381B3F5C06F28BF4FF4C063438100F11A
:10296000100242600122C281ED1A8246002DE3DC92
:1029700024E001221F4B1A7024E001221D4B1A7023
:1029800030461D4B984726461CE004F1130020F00A
:102990000300CB1C23F00303184480B2174B984765
:1029A000064678B10444133424F003044460A0F8CC
:1029B0000880A0F80A800023036003730123F381D9
:1029C000002373733046BDE8F0870720084B984713
:1029D00006460028F6D000234360A0F80880A0F83F
:1029E0000A8003600773E9E70026EBE70026E9E7C2
:1029F00049264000C449402061284000F12440009D
:102A000002898A4226D938B50446438999421FD99A
:102A10000D46891AEB1A9DB223890B442381246841
:102A20006389AB42F6D3227B4AB99D4207D06368E3
:102A30001B1BE91889B22046074B9847044665815D
:102A40002581206808B1054B98470023236038BDD5
:102A50000D46E8E7704700BF212440006128400090
:102A6000034630B100200130C0B21B68002BFAD100
:102A700070470020704710B1C3890133C38170478C
:102A800010B528B1024619B1036853B9034610E0E6
:102A90000B4B4FF43C720B490B480C4CA047FEE724
:102AA000034610890C892044108118681A460028B2
:102AB000F6D11A89088902441A81196010BD00BF35
:102AC000F8A8400010A84000C0A74000897240004C
:102AD00010B50C46024B98472046024B984710BD54
:102AE000812A4000772A40002DE9F04730B10D4699
:102AF000044619B102890B899A4207D2324B40F23F
:102B00005F3232493248334CA047FEE74FF0000AAB
:102B10005746DFF8CC90D04610E0DB1B9EB215E0A4
:102B20006389BB4223D0002D41D06A892B899A4208
:102B30002AD01CB1628923899A423DD063896A896F
:102B4000D81BA2EB0A018842E7DB8EB26068696895
:102B5000324651443844C8473744BFB256441FFA3E
:102B600086FA6B895345DBD82D68C246D8E72468BE
:102B700004B90DB94746D6E7134B40F27A321649ED
:102B80001348144CA047FEE72B68002BD1D00E4B06
:102B90004FF4607211490E480E4CA047FEE70A4BF5
:102BA00040F285320D490A480A4CA047FEE744B17D
:102BB000628923899A4204D12368002BEFD1002D2A
:102BC000BCD10020BDE8F087F8A8400048A840002C
:102BD000C0A740008972400078A8400088A8400043
:102BE000117340002DE9F04748B10F469246054663
:102BF00089B162B10026DFF88490B0462BE01A4B11
:102C000040F29F3219491A481A4CA047FEE716466F
:102C10003046BDE8F087144B4FF4687216491448EB
:102C2000144CA047FEE76C89E41AA4B2544528BFAF
:102C30005446696822461944B819C8472644B6B2B2
:102C4000AAEB04041FFA84FA43462D68BAF1000F78
:102C5000DED0002DDCD0002BE5D06A899A42E2D884
:102C60009B1A9BB2F1E700BFF8A84000B4A840004F
:102C7000C0A7400089724000D4A8400011734000F2
:102C80002DE9F04743685E7A184B1C685CB38246B6
:102C90000025DFF85C80DFF85C9003E0E368254600
:102CA000F3B11C46237CB342F8D12CB123681BB18D
:102CB000D9F800209342F1D16769002FEED0434646
:102CC00052462146A069B8470028E7D02DB1E368F5
:102CD000EB60064B1A68E2601C600120BDE8F087DB
:102CE0000020BDE8F0870020BDE8F08724264020C2
:102CF00098394020A03940206FF00900704700004B
:102D0000F0B4164B18884FF480444FF6FF764FF41A
:102D1000404704E0384606E0013CA4B29CB1B04212
:102D2000F8D0013080B20E4901F1100551F8043B92
:102D30001B6863B15A8B8242EED0DB683BB15A8B81
:102D40008242FAD1E8E7054B1880002003E08D426B
:102D5000ECD1024B1880F0BC704700BF0C00402043
:102D600008AD400070470000F8B5037E13BB054670
:102D70000E46144622B9214B98470446002833D00A
:102D80001F4901F1100751F8043B1B68EBB9B94228
:102D9000F9D116B1336803B12B606C83194B1A68F3
:102DA000EA601D60184B984721461848184B984711
:102DB0000020F8BD174B40F2B71217491748144CC2
:102DC000A047FEE7DB68002BE1D05A8BA242F9D185
:102DD0006BB1186876B168B13268904201D0002AB0
:102DE000F0D16FF00700F8BD6FF00100F8BD6FF093
:102DF0000700F8BD6FF00700F8BD00BF012D4000CF
:102E000008AD4000DC494020552240000CAB40009A
:102E100089724000ACAA4000E4AA4000C0A740006C
:102E200038B5037E53BB05460320274B984704461D
:102E3000002847D02B6903616B8B43830123037602
:102E40006B7E43762B7A43F002030372AB7A837274
:102E50006B7A43722B6803606B8BE3B11B4B1B686F
:102E60009D4213D01A4A13609BB1DA68954223D071
:102E70002AB3D3689D421CD01A46F9E7154B4FF48C
:102E8000037215491548164CA047FEE7DA680F4B48
:102E90001A600023EB6029460220124B9847124B20
:102EA0006361124B1A68E2601C60114B9847204620
:102EB00038BD074B1A601346EA68DA60E9E7044B4D
:102EC0001A60E6E7002038BD49264000DC49402072
:102ED000D8494020ACAA4000E4AC4000C0A7400064
:102EE0008972400089264000F92C4000D4494020D6
:102EF0005522400070B40246856A848D016B6319C7
:102F0000581AD38E40F2B456B34294BFC31A831BEF
:102F1000002B02DBD48570BC70476B1A002B03DDDD
:102F20000023D3851846F6E7491BD1850020F2E738
:102F300038B504460D46838D0B449BB240F668328B
:102F4000934288BF40F6683383850B4B984740F225
:102F5000D923984208DCA28D40F668339B1A294693
:102F60000648074CA04738BDA37F43F00203A37770
:102F70002046044B9847EEE7F52E4000D0AD4000C8
:102F8000897240006D57400060B110B5044640683A
:102F900018B1054B98470023636021460420034B7A
:102FA000984710BD704700BF612840008926400047
:102FB00048B138B50346044D1C681846A847234657
:102FC000002CF9D138BD7047892F400041767047F9
:102FD00038B505460420094B9847044660B12B6874
:102FE0006868A968EA6823606060A160E2602B6994
:102FF00023616068024B9847204638BD492640004F
:10300000772A400001617047C0F880107047C1679F
:103010007047C0F88C10704741617047C0F8881045
:1030200080F8202070470000037E0A2B30D0012B4F
:103030002ED970B504461748174B9847A36F3BB17C
:103040001648154B9847A06F154B98470023A36768
:10305000E36E13B11348104B9847236F13B1124816
:103060000D4B9847636F13B110480B4B9847606F37
:103070000F4EB047002565674FF6FF73A386E06EDD
:10308000B047206FB047E5662567A4F86A5070BD69
:10309000704700BF18AD40008972400028AD400065
:1030A0006128400054AD400078AD4000A0AD400024
:1030B000B12F40002DE9F04F83B0B14A13680133BE
:1030C0001360B04A137801331370AF4DDFF810B3BB
:1030D000AE4B1C680CB10027C6E0AD48AA4B984720
:1030E000AC4B1C68002C00F0C1810025A44EDFF819
:1030F000E882A94FA5E1E468B3E094F84620062AE7
:1031000040F0C180A548A8470126E0E0A448A847B0
:103110000126DCE0B4F93410002901DB0131A1867D
:10312000216F002900F0D380B4F93400B4F94410C1
:103130008842C0F2CC80022B0AD0B4F94010B4F916
:10314000423003EBE10397498A5C9340A4F8443092
:103150000023A386B4F86030B4F84C20934228BF13
:1031600013465B08A4F84E30E28EB3EB420F02DA4E
:103170005300A4F84E30A4F84C2020468A4B9847C0
:10318000A5E00026A3E0A37F13F0100F05D07C4B31
:103190001B68626A9B1A282B06D8606F002800F013
:1031A00062814FF000093DE006F101085FFA88F600
:1031B0007E48A8478FE0724B1A68636AD21AD4F827
:1031C00090107B4B0B44ABFB0303B2EB531F0CD8AB
:1031D00094F89630774800FB0313ABFB0313B2EB74
:1031E000531F10D84FF000091AE0A37962792179B2
:1031F000E07900907048A84706F101085FFA88F668
:103200004FF001090CE020466C4B984794F896303B
:10321000013384F896304FF0000901E04FF00009C7
:10322000606F50B1564B1A68636AD21AB4F94430D1
:1032300003EB4303B2EB430F5BD2237E032B5DD042
:10324000237E092B67D0002E72D1E668E37F01331D
:10325000DBB2E37794F820209A4240F2CE802746F2
:103260003446002C3FF43CAF5548A847454B1B78EB
:1032700094F821209A423FF43EAF84F82130237E17
:10328000022B3FF43AAF94F846200C2A3FF43EAFAD
:1032900094F89560002E3FF43DAF94F894300133DC
:1032A000DBB284F89430474A324412F8012C9A4237
:1032B0003FF667AF002384F89430062E03D806F15A
:1032C000010884F8958020463F4B98470026237ECE
:1032D000062B3FF458AF237A13F0080F9ED0237EBD
:1032E000042B3FF468AF072B3FF465AF4FF00009A4
:1032F00096E7364B9847002363679EE7204B1B6891
:10330000626A9B1A282B9ED906F101085FFA88F69B
:103310002F48A84794E71A4B1B68626A9B1AF02B48
:1033200091D906F101085FFA88F62A48A8478AE78A
:103330002046294B9847F7B1E368FB60B9F1000FCD
:1033400050D1D4F88C80D4F810A0E6682146022031
:10335000114B98470022214B1A70B8F1000F67D02B
:103360006FF009015046C0471C4B1B78002B7FF4BF
:10337000AFAE344675E7E368044A1360DEE700BF8A
:10338000D04940202926402089724000CC49402065
:1033900004AE4000E04940208926400048AE40008D
:1033A00070AE40009CAA4000F95A400098AE400020
:1033B000B84C0A00F8240100C8AE4000E95B4000A8
:1033C00024AE4000C8AD40009D5C4000B12F4000DD
:1033D00014AF400044AF400029304000C8494020AD
:1033E000D34D6210A16A206DA38B0193638B009370
:1033F000231D22461F4EB047A3E70027E7771E484C
:10340000A8471E4B1F70D4F888305BB12146206955
:1034100098471A4B1B78002B7FF45AAE10B1274601
:1034200034461EE72046164B98472746344618E791
:10343000344616E7E268134B1A600DE02546E4684F
:10344000A4B1626A33689B1AF02BF7D92046C047B3
:10345000002DEFD0E368EB60D4F80C9021460220F9
:10346000B8474C46ECE74FF00009E9E603B0BDE889
:10347000F08F00BF455A400074AF4000C84940205B
:103480006D574000E049402010B50C4602688A4262
:103490000BD0184B1A607AB1D36899421DD0F3B1A2
:1034A000DA68944204D01346F9E7D368036003E076
:1034B000104A1360E268DA600023E36020460E4B96
:1034C0009847237E0A2B05D0012B03D0A37F13F04E
:1034D000010F08D10023237610BD1346EAE700222E
:1034E000044B1A60E8E743F00203A3772046034B3E
:1034F0009847EFE7D8494020293040006D574000F9
:1035000030B583B0044621B1037E042B0BD0072BCA
:1035100009D0237E072B00F2B180DFE803F04E755F
:103520007F8C9BAFAFA4A36FE3B1A38B0193638B9D
:103530000093231D2246A16A206D514DA8472046C5
:10354000504B9847504B1A68944211D04F4B1A6019
:10355000AAB1D3689C4220D00BB3DA6894420AD057
:103560001346F9E7A28D40F668339A42DDD1D0E7E1
:10357000D2681A6003E0454A1360E268DA6000230B
:10358000E3600122424B1A70237E042B0BD02146AC
:103590000220404B9847002359E01346EDE70022F4
:1035A0003A4B1A60EBE70A2323763B4B1A68E2603A
:1035B0001C603A4B9847002349E0638BC3B1384BFA
:1035C0001A6894420BD0314B1A607AB1D3689C428E
:1035D00014D0ABB1DA68944204D01346F9E7D2684C
:1035E0001A6003E0294A1360E268DA600023E360AE
:1035F00021460220274B9847002328E01346F3E793
:103600000022224B1A60F1E721462648264B9847B4
:10361000214603201F4B9847002318E021461A48F3
:10362000214B984701221A4B1A7021460220194B50
:10363000984700230BE020461C4B9847034630B9BF
:1036400005232376C4B12046194B9847002318461A
:1036500003B030BD2046154B984703460028F6D1ED
:1036600005232376EEE72046104B984703460028B3
:10367000EDD109232376E5E70023E8E70023E6E719
:10368000455A400029304000CC494020D8494020CC
:10369000C849402089264000E0494020552240008A
:1036A000DC494020D449402089344000A5564000E0
:1036B0006D5740002DE9F04383B00446037E0A2B8A
:1036C00027D00E46D0F85080D0F82890D0F88C50F3
:1036D0000769014619481A4B98470122194B1A707D
:1036E000206F08B1184B9847E06E08B1164B984709
:1036F000606F08B1144B9847A6B921460220134BBE
:1037000098471DB16FF009013846A84703B0BDE8DE
:10371000F08301460E480A4B9847214602200B4B86
:103720009847F3E7A38B0193638B0093231D2246F5
:1037300049464046074EB047DFE700BFCC4940202E
:1037400089344000C8494020B12F400089264000FC
:10375000E0494020455A400008B50121014B9847F7
:1037600008BD00BFB5364000034B1868034A126815
:1037700010441860704700BF08004020D049402026
:10378000F8B505460220454B98470446002839D035
:10379000982200212046424B9847657640F66833D0
:1037A000A4F866300025A4F86850A385E385657207
:1037B000FF23A3724FF40673E3860623A4F8443074
:1037C000A4F84050A4F842304FF6FF73A3860123BB
:1037D000A4F84C30334B9847A0652065A064E065A1
:1037E000314B1B686362314B1B7884F82130E577DD
:1037F0002F4BC4F880302F4BC4F8903084F896508B
:103800002046F8BD2C482D4B98472D4B1B68A3B183
:10381000254A1068002201E0DB6833B1596A411A79
:103820009142F9D30A461C46F6E734B121462548B1
:10383000224B98472046244B98470220174B984725
:1038400004460028A4D1294620481C4B9847204B09
:103850001B68DBB1144A176800227F2601E0DB6891
:1038600063B1597E8D42FAD3B142F8D8586A381AFA
:103870009042F4D30E4602461C46F0E734B121468E
:1038800014480E4B984720460F4B98470220034B95
:10389000984704460028B3D07AE700BF4926400085
:1038A0004574400069374000D04940202926402017
:1038B0006539400000DD6D00C8A9400089724000F4
:1038C000E0494020FCA940005937400038AA400098
:1038D000CC49402070AA400008B54020014B9847D1
:1038E00008BD00BF8137400010B504460846074BAD
:1038F000984738B1808C38B1283880B2A04228BFB0
:10390000204610BD204610BD204610BD5117400076
:1039100008B5034B53F820100248034B984708BDE5
:1039200098AF4000BCAC40008972400010B504461E
:103930000848094B9847207E084B9847237E012B67
:1039400003D0A37F43F01003A37701212046044B4B
:10395000984710BD28AB40008972400011394000E3
:103960000135400010B5084642B114461189064B96
:1039700098472046054B9847002010BD0BB100200A
:1039800010BD034B984710BD312F40006128400007
:103990002D394000F8B50446866F777B0023836796
:1039A000D0F88050E5B1324601460069A847054687
:1039B000F5B917F0200F20D0A38D40F6683293425E
:1039C00001D00133A385D4F88060B6B100231A4634
:1039D00021462069B04710F10A0F08BF05460CE0E8
:1039E0000023324601461846054DA8470546DFE745
:1039F00015F10A0F01D0A66700252846F8BD00BFC3
:103A0000653940002DE9F0471B4A137801331370E4
:103A10001A4E1546DFF87490DFF87480346844B3AA
:103A20002B7894F821209A4200D1FEE784F82130C7
:103A3000A37F13F0010F0ED1D4F80CA0A36F43B1F4
:103A40000F4F00233B7020460E4B98473B78002BCE
:103A5000E4D15446E3E74046C847A37F43F002035E
:103A6000A3772046084B9847A37F23F00303A3774F
:103A7000E2E7BDE8F08700BF29264020CC4940207E
:103A8000C8494020953940006D5740008972400078
:103A9000C8AC400008B5074B9847074A1378013374
:103AA000DBB2137013F0010F00D108BD034B984730
:103AB000FBE700BF053A400028264020B530400013
:103AC00010B5044610F0010F18D114F0020F19D1EF
:103AD00014F0040F1AD114F0080F1BD114F0100FBA
:103AE0001CD114F0200F1DD114F0400F1ED114F082
:103AF000800F1FD11148124B984710BD1148104B31
:103B00009847E2E710480E4B9847E1E70F480C4B07
:103B10009847E0E70E480A4B9847DFE70D48084B07
:103B20009847DEE70C48064B9847DDE70B48044B07
:103B30009847DCE70A48024B9847DBE778AC40003F
:103B4000897240007CAC400084AC40008CAC4000EA
:103B500094AC40009CAC4000A4AC4000ACAC400035
:103B6000B4AC40002DE9F04F8BB004463448354DDD
:103B7000A847354F3846A8472088344EB04780467E
:103B80006088B047024641463148A8473846A847B2
:103B90006068DFF8D880C04701462E48A8473846FD
:103BA000A847A068C04701462B48A8473846A84701
:103BB000A089B0470790A089B0470890A089B04776
:103BC0000990A089B0478046A089B0478146A08966
:103BD000B0478246A089B0478346E089B047049049
:103BE0000BF001030393CAF340030293C9F380036C
:103BF0000193C8F3C0030093099BC3F30013089A11
:103C0000C2F340120799C1F30F311448A847A089A5
:103C1000B04700F03F00124B98471248A84738467B
:103C2000A847208AB0478046608AB047024641468E
:103C30000D48A8473846A8470BB0BDE8F08F00BF35
:103C400040AB40008972400050AB400087134000F9
:103C500074AB4000ACAB4000D4AB4000FCAB4000C8
:103C6000C13A40003CAC400048AC4000A9134000C1
:103C7000F8B50546224B1C68A089224B9847C0F333
:103C80000F30052800D8F8BD1D4B1B6898891D4BC7
:103C90009847060B053EB600B6B2002EF3D004F1ED
:103CA0001402002340F2B35740F2B45403E001334E
:103CB0009BB29E42E7D91846D15C0129F7D0002972
:103CC000E1D0022906D0104441780029DBD00B4412
:103CD0009BB2EEE7D11849780429D4D1191DB1421D
:103CE000D1DC104490F802E0C17841EA0E21481E70
:103CF00080B2B84288BF2146E98604339BB2D8E738
:103D000054264020871340002DE9F0470546894698
:103D100003699889294B984710F0010F27D1B9F111
:103D2000000F49D0D9F810202B8951685B1A24491B
:103D300009680B44B9F808105B1A002B04DB1F4F0D
:103D4000DFF88C801F4E28E04C461D4B1968236914
:103D50005A682B890B449B1A002B05DD521A91B22D
:103D600029816868184B98472C60BDE8F087484661
:103D7000164B98470024F7E7D9F800404846B0476B
:103D8000D4B122692B890E4909680B4451685B1A2A
:103D900021895B1A002BD8DBA1469089B84710F027
:103DA000010FE9D0D5F810A0BAF80C400120C047A7
:103DB0002043AAF80C00DFE70024D5E78713400072
:103DC00050264020892F4000012A4000B12F40009A
:103DD0007D1340002DE9F0470446AA4B1B7813F0F1
:103DE000100F00F06B81B0F86050806D626DA64BD3
:103DF0001B68D11A002928DB9A421BD0A34A1268FB
:103E000090421DD0A14B1A68A36CD11A002941DD44
:103E1000012903D4216D511A00296EDD0023A4F875
:103E20006430E36E002B00F04181984EDFF8788219
:103E3000974FF8E0954A1268821A002ADEDA04E009
:103E4000944A1268D289AA42DCD9924A1268D1896E
:103E50008EB2A4F86010D28991B2B4F862708F4229
:103E600038BFA4F862206365884B1B68A3654EB910
:103E700094F89530002BC5D184F89430012384F850
:103E80009530BFE794F89530002BBBD0002384F821
:103E90009530B7E70021A4F864107F49098831B94B
:103EA0002844B4F86010A56D2944884203D000234B
:103EB00084F84730B5E7A18E11F4004FF7D19A424C
:103EC000F5D194F84720531CDBB29A4238BF84F8EE
:103ED000473094F84730032B09D9B4F84C20E38ECF
:103EE00013449BB29A429CD2A4F84C3099E7032B1E
:103EF00097D12046694B984793E7A17F11F0040FB3
:103F000006D021F00401A177B4F84E10A4F84C10AB
:103F1000002084F84600B4F94050B4F8421001EB98
:103F2000E501A4F84410D31A9BB2A4F86430B4F8A5
:103F300066100B44A4F8663084F84700A264237E20
:103F4000032B0CD9B4F84C20B4F84E3093420ED960
:103F5000E38E13449BB29A4238BFA4F84C30236FCF
:103F6000002B4BD0DFF84081494E484F18E0E38EDC
:103F700003FB03F393FBF2F313449BB29A42EED29A
:103F8000A4F84C30EBE76868454B9847B4F86830C4
:103F9000181AA4F868002846424B9847236F6BB361
:103FA0001B695868C0470546236FB3F808901B6922
:103FB0009889B04710F0030018BF012048443B68BF
:103FC000ED1A2844002812DC256F2B682367B4F80B
:103FD0006430002BD7D02B699889B04710F0010FBF
:103FE000D1D0B4F86430013BA4F86430CBE7236F40
:103FF00023B10023A3860023E37712E74FF6FF7374
:10400000A386F8E7A4F86A302CE06868244B984748
:10401000B4F86830181AA4F868002846214B98476D
:10402000E36E002B42D035681B695868C047824652
:10403000E36EB3F808901B699889B847A5EB0A05A9
:1040400010F0030018BF012048442D1A002D2DDB6D
:104050003368226D9B1A002B28DCE56E2B68E36623
:10406000002BCFD0B4F86430002BCED02B699889C8
:10407000B84710F0010FC8D0B4F86430013BA4F881
:104080006430C2E730264020502640202C264020B5
:10409000871340005426402058264020895B40006A
:1040A000612A4000892F4000A9134000A36B2BB167
:1040B000E26B9F490968521A002A23DB9D4B1B883B
:1040C000002B00F05C82227E062A00F25882A16A50
:1040D000994A12688D1A012D05D4C2F10100C31A44
:1040E0000B44002B2FDD531A002B56DBA38DC3F19D
:1040F000010313445B1A002B54DD20468F4B984775
:10410000BDE8F087B4F940108D4A1268D31AA3EBCA
:10411000E1039BB218B25A1812B2A4F8402000284A
:104120000EDBB4F94230A3EBA30303449BB2A4F823
:10413000423003EBE203A4F844300023A363BDE75D
:104140005B4218B2EDE72B467E4A506842899542A1
:104150001EDD0189491B89B200259B1A0181458119
:10416000006842899A42F8DB5B4219B2764B984765
:10417000A26A7449704803680D892B449B1A0B810D
:104180000B6902605A60A16A531A002BAEDAB4E7D9
:10419000694209B26C4B9847EAE7A37F43F00203F8
:1041A000A377AAE78A4213D02046644B9847666FEC
:1041B000002E00F02D8131694A685F4B18688242F9
:1041C00000F02C81002700F1FF3E00F1010C48E1D6
:1041D0005C4B1D891B6998895C4B984710F0030361
:1041E00018BF01232B449BB2524A1380A28D9A42DE
:1041F00017D3636F002B00F0EF81524B1B69988936
:10420000524B984710F0010F42D0606F002800F029
:10421000E3814F4D03686367A847606F0028F9D1B9
:10422000DAE1484B1B699889484B984710F0010F19
:104230001FD1444BA28D1A811B699889434B984723
:1042400010F0020F03D03F4A1389013B13813D4D0B
:10425000298968683F4B98472E892B6998893B4B81
:10426000984710F0030018BF01200644314B1E8010
:10427000BFE7344B1E69B5892846344B984700F098
:104280003E00354B984725F47C550543B581D0E772
:10429000D4F87490B9F1000F00F09C81D9F8102087
:1042A000244B1B88244909680B4451685B1AB9F8F0
:1042B00008105B1A002BC0F2C081244E214FDFF89A
:1042C000988015E0D9F800504846214B9847002DBA
:1042D00000F080812A69174B1B88174909680B4435
:1042E00051685B1A29895B1A002BC0F2A781A94685
:1042F0009089B04710F0010FE4D03B699889B0472E
:1043000010F0020FDED1D7F810A0BAF80C5001203F
:10431000C0472843AAF80C003D893B699889B047FB
:1043200010F0030018BF01200544024B1D80C9E7AF
:104330002C2640205826402050264020F55640008C
:10434000D049402034264020D52740008713400024
:10435000892F4000012A40007D134000914B1960D5
:1043600000236B602B699889B04710F0010F07D0CC
:104370008D4A137843F020031370237E042B34D02E
:104380002B6863672846894B9847656F002D2FD0AF
:104390002B695A68A16A8A422AD1C8F80020B5F868
:1043A00008909889B04710F0030018BF01204844D6
:1043B000A36A1844A062B5F808902B699889B047A1
:1043C00010F0030018BF01204844A38D181AA085DF
:1043D0002046B84769680B89002BC3D0714B186819
:1043E0000028BBD0724B9847BAE707232376C7E76C
:1043F000A37F13F0010F06D023F0010343F0020363
:10440000A377BDE8F08743F00103A377BDE8F08709
:104410006848694B98476067BDE8F08735460026D5
:10442000644B1A892B899A424FD96248624B98474C
:104430000346002849D036B13060294618465F4B04
:104440009847BDE8F0876067F7E7831A002B2FDBFA
:104450003568002D36D029694A6837468242DFD058
:104460002E46002FF1D03B695B68AEEB0303002BB7
:10447000EEDBACEB0203002BEADC4E484E4B9847D8
:10448000044610B33B6959684D4B1B683A890A448E
:10449000D21A002A05DD5B1A99B239817868494B36
:1044A00098473C6031462046444B9847BDE8F0872A
:1044B0004048414B984740B1606731463F4B984771
:1044C000BDE8F087821A002A01DCBDE8F087888900
:1044D0003D4B984710F0010FF7D13648364B9847BF
:1044E00030600028F1D033695968354B1B68328938
:1044F0000A44D21A002A05DD5B1A99B2318170682C
:10450000304B9847314B1A882D4B1B681A44A38DAA
:10451000A16A0B449A42D8D933681B6998892A4BFF
:10452000984710F0010F1BD13268254B1968A38DF5
:104530005B1AA16A0B441381336819895868214BAF
:10454000984733681C891B6998891F4B984710F05E
:10455000030018BF012004441C4B1C80BDE8F087F9
:1045600033681F69BD892846174B984700F03E0005
:10457000174B984725F47C550543BD81D4E7104B74
:104580001B68A26A991A002905DB01339B1AA28DC8
:104590009B1A002B99DDA37F43F00203A377BDE8AC
:1045A000F08700BF482640204C264020892F40003D
:1045B000812A400034264020D12F4000093D400090
:1045C00050264020012A40008713400058264020F2
:1045D0007D134000002565672D4B1A882D4B1B6805
:1045E0001344A362A38D9B1AA38520462A4B9847A8
:1045F0002A4B5B681A8922B1294A13600022274B93
:104600005A60264B1B699889264B984710F0010F7A
:1046100004D0254A137843F020031370656F002DF2
:104620003FF4E6AE2B695A68A16A8A427FF4E0AE95
:10463000DFF860801B4E184FAFE64D46154B1968EA
:104640002B695A68124B1B880B449B1A002BC2DD46
:10465000124B521A1A811B699889124B984710F015
:10466000020F03D00D4A1389013B13810B4E318990
:1046700070680E4B9847378933699889094B98477A
:1046800010F0030018BF01200744014B1F80A2E770
:104690005826402050264020F52E40003426402049
:1046A00048264020871340004C264020012A400025
:1046B0002DE9F04383B004460D464368197801F0B4
:1046C0000F0103EB81038A4A136089004942894B39
:1046D000984710B92389132B05D82046864B984755
:1046E00003B0BDE8F0832946844B1868844B984793
:1046F0000028F2D1814B1B6803F0F003E02BECD0D3
:104700002389009306237D4A7E4920467E4DA84793
:1047100020B1774B18687D4B9847DEE7744B1B68D8
:1047200098897B4B9847000BC0EB8030810009B221
:104730002046704B98470028CFD16D4D2F683888A0
:10474000734EB04738802F687888B04778802F68DC
:104750007868DFF80482C04778606E4B18602F6875
:10476000B868C047B8606C4B18602F68F889B047CC
:10477000F8812B689889B0475FFA80FE0EF03F02FF
:10478000664B1A701EF0030318BF012321890B44E6
:1047900099B2634B1980634B1868002800F08B8036
:1047A0002F683E88574BD3F800C0544BD3F8008095
:1047B0000546002204E0EB682A46002B7BD01D460C
:1047C000AB8BB342F7D1B5F81A907B889945F2D1FB
:1047D0006B686345EFD12B684345ECD122B1EB68A0
:1047E000D360E8604F4B1D60002D64D04E4B00221B
:1047F0001A60218919815C601F614C4B1A604C4B17
:104800001A701EF0080F03D0637B43F0010363733B
:10481000AB6F5BB12846474B984710F10A0F3AD06F
:10482000AB6F1BB13E4B1B88002B34D1424B1D603C
:104830003A4B1B7813F0040F00F063812B7E022BA0
:1048400000F04D81334B1B68AA6A9B1A08D4AA8DCD
:104850009B1A002BCCBF00230123002B40F0478183
:10486000AA6A2C4B19683548354B9847304B1B7852
:1048700013F0080F00F0BD83D5F88C301BB16FF03A
:104880000A0128699847294626482E4B9847294609
:1048900002202D4B98470023274A1360234A1360B8
:1048A000214B586800283FF41BAF134B9847002258
:1048B0001D4B5A6014E7254B1868002879D00C4B23
:1048C0001F683A880F4BD3F800800C4BD3F800C018
:1048D00046E01EF0010F02D01D4B1B684362002909
:1048E00063D0837F43F0020383771A4B98475CE0E1
:1048F00054264020D527400061284000A0394020A0
:10490000991A40009839402055164000653B4000F8
:1049100087134000502640202C264020302640207F
:1049200058264020CC4940203426402048264020AC
:104930004C26402095394000E449402014B0400006
:10494000897240008934400089264000E0494020B7
:10495000D04940206D574000A9134000C06840B3C3
:10496000838B9342FAD1458B7E88AE42F6D146685E
:104970004645F3D106686645F0D11EF0040F14D108
:104980001EF0020FA5D0824A1668826AB21AA6D417
:10499000878DD21B002AA2DC019300957D4B7E4AB5
:1049A00031447E4800687E4DA84720467D4B98479D
:1049B00096E67D4BD3F800C0BCF1000F00F0878372
:1049C0007A4B1F687888744B1E686546002205E0A4
:1049D000EB682A46002B00F07A831D466B8B8342DE
:1049E000F6D12B68B34202D00DB1002BF0D1002DCF
:1049F00000F06D832AB1EB68D360C5F80CC06A4B38
:104A00001D601EF0040F05D11EF0100F06D11EF020
:104A1000020F11D12046634B984761E65C4B186842
:104A20003B8801937B8800935A4B5B4A01445B4867
:104A300000685B4DA847EDE77A8839885C485D4B94
:104A40009847687E5C4B9847064600283FD0524BFB
:104A50001B6803606B8B43834E4B1B684360534B57
:104A60001A681388838303230376494B1B68591CF8
:104A700081620163D189A0F86010D289A0F8622018
:104A8000A0F84E10013B43652B6903616B694361DC
:104A90002B7A23F073030372484B1A68C2601860C4
:104AA000474B98470122474B1A703046464B984770
:104AB000311DF08E454B9847F08612213046444B0D
:104AC000984740B100213046424B9847A2E7424800
:104AD000384B98479EE73046404B98479AE72B6DF6
:104AE0002E4A1268934214BF00230123B5E63C4AC4
:104AF000137843F008031370AB7F23F00103AB7707
:104B0000B4E613F0020F09D02B7E023BDBB2012B7F
:104B100004D9AB7F43F00203AB77A7E6AB7F13F07A
:104B2000100F02D12F4B1B686B62002385F8963063
:104B30002846254B98472B7E023B072B3FF696AE27
:104B4000DFE813F00800AD0012012201B6011201E6
:104B5000F8013B02244B1B7803F01203122B47D0C1
:104B6000214B1B7813F0100F3FF480AE0F4B1B68E6
:104B70001E4A1088064A11681A8801925B880093C1
:104B8000044B054A014405480068054CA0476DE602
:104B90005026402098394020A03940202C26402023
:104BA000455A400061284000D44940205426402006
:104BB000C4AF40008972400081374000CC4940209A
:104BC00055224000C8494020713C4000E93840006F
:104BD000D1554000B5364000E8AF40006D57400069
:104BE0004C264020D04940203026402058264020E6
:104BF0002B6F1B695868954B98470130944B1B6885
:104C00009842ADD1B5F866300133A5F86630914BC6
:104C10001B685A1CAA622A63A8648F4A1268D18949
:104C2000A5F86010D289A5F86220013B6B650423CA
:104C30002B76E918E88E894B9847E88600EB8003CD
:104C40005B00A5F84E30B5F84C30012B01D1400087
:104C500080B2A5F84C00B5F86830013BA5F8683083
:104C6000286F03682B677E4B98472B6F93B94FF6DD
:104C7000FF73AB86D5F884303BB100222946286902
:104C8000984710F10A0F3FF406AEAB7F43F00203E2
:104C9000AB77EBE50023AB8685F84630EAE7714B4E
:104CA0001B7813F0100F50D0694B1868AB6CDB43C6
:104CB000C34203D42B6DC31A002B0FDD664B1B6858
:104CC000694A1488634A11681A8801925B880093C4
:104CD000664B674A2144674CA047C7E504232B76FF
:104CE000654B1B695A8819886448654B98476B69FE
:104CF00043B1002229462869984738B110F10A0FBC
:104D00003FF4C9AD28465F4B9847C4E5B5F84C4021
:104D100028465D4B9847B5F8643013B1013BA5F8C0
:104D20006430012CEB8E04BF5B009BB2A5F84C30C5
:104D3000564B1B7813F0200F3FF498ADAB7F43F038
:104D40000203AB7707232B7690E513F0020F3FF4B5
:104D50008DADAB6A013B3F4A126893427FF486AD4A
:104D600028464B4B984781E52846474B9847474B89
:104D70001B7813F0200F3FF479ADAB7F43F00203B3
:104D8000AB7707232B7671E528463F4B98473F4B7F
:104D90001B7813F0200F49D0324B1B7813F0100F03
:104DA0003DD02A6D2A4B1B689A4238D1324B1B6981
:104DB0005A8819883748324B9847AB7F43F0020333
:104DC000AB772846344B9847344B1B68AB420ED127
:104DD000EA68324B1A600122314B1A700A232B7693
:104DE000304B1A68EA601D602F4B98473EE52F4A0A
:104DF00013600022012004E0D968A94209D00246CC
:104E00000B46002BF8D1002AE5D00022274B1A6070
:104E1000E1E70AB1254A1360CA68DA60DBE7AB7FD5
:104E200043F00203AB7708232B761FE50D4B1B786D
:104E300013F0100F3FF41AAD2A6D054B1B689A4210
:104E40007FF414AD06232B7610E500BFA9134000B4
:104E50002C2640205026402054264020E93840008F
:104E6000892F400030264020582640209839402085
:104E7000A0394020455A4000342640204CB0400024
:104E80008972400059374000D53D40004C264020F3
:104E90002D5B400074B0400029304000CC494020D8
:104EA000C8494020E049402055224000D8494020D0
:104EB0002846964B9847964B1B7813F0200F3FF4EB
:104EC000D5AC944B1B695A8819889348934B9847E3
:104ED000AB7F43F00203AB772846914B9847914B49
:104EE0001B68AB4204D0904A13600022012013E0FB
:104EF000EA688C4B1A6001228C4B1A700A232B76BD
:104F00008B4B1A68EA601D608A4B9847AEE4D968FB
:104F1000A94209D002460B46002BF8D1002AEAD05C
:104F20000022814B1A60E6E70AB17F4A1360CA6823
:104F3000DA60E0E72846754B98477F4B1B7813F003
:104F4000100F3FF493AC2A6D7C4B1B689A427FF4A0
:104F50008DAC704B1B695A88198879486F4B9847FC
:104F600028466F4B98476F4B1B68AB420ED1EA68DF
:104F70006C4B1A6001226D4B1A700A232B766C4B16
:104F80001A68EA601D606B4B98476FE4664A1360CD
:104F9000002201205BB1D968A94202D002460B462B
:104FA000F8E70AB1604A1360CA68DA60E2E7002AEB
:104FB000E0D000225C4B1A60DCE72846534B984750
:104FC0005D4B1B7813F0100F3FF450AC2A6D5B4B18
:104FD0001B689A427FF44AAC4E4B1B695A88198869
:104FE00058484E4B98474A4A137843F010031370C1
:104FF0003CE413F0100F13D0AB7F13F0100F06D169
:10500000D5F88C301BB16FF00B0128699847294601
:1050100044484D4B9847294602204C4B98473AE468
:10502000B5F8642042B1EB6F33B12946286998473F
:1050300010F10A0F3FF42FAC454B1A6892B1AB7FC9
:1050400013F0100F20D1D5F880402CB3002329464F
:105050002869A04710F10A0F3FF41DAC10B13C4B7A
:105060001B68AB672A4B1B7813F0200F05D0AB6F82
:10507000C3B15A7B42F020025A730022354B1A60AA
:105080002846354B984706E41046344B9847284647
:10509000334B9847FFF7FFBB002329461846314C96
:1050A000A047D7E7AB8D40F66832934201D0013379
:1050B000AB85D5F88040002CDFD000231A46294666
:1050C0002869A04710F10A0FD7D1FFF7E4BB264BA0
:1050D0001B689889254B984710F0040F10D1224B7C
:1050E0001B68234A1088234A11681A8801925B883A
:1050F0000093214B214A014410480068204DA847E5
:105100002046164B9847FFF7EBBA00BFD53D40004D
:105110004C26402034264020A4B040008972400034
:1051200029304000CC494020D8494020C84940207F
:10513000E049402055224000302640202C264020C7
:10514000D4B0400000B140008934400089264000BE
:1051500048264020E44940206D5740006128400027
:1051600059374000653940005426402087134000DD
:10517000582640205026402098394020A039402011
:10518000455A40002DE9F0478146884616469A4622
:105190009DF8207007F0010307F00202002A14BFF7
:1051A0000C25002505EB83050420244B9847044675
:1051B000002839D0077300220260C0F80480B8F8D4
:1051C00008305B1B03814281142140461C4B9847E9
:1051D00070BB6368D3F80480C4F81080B9F81A0073
:1051E000184FB847A8F80000D4F81080B9F81C0090
:1051F000B847A8F80200D4F810805046124B9847E0
:10520000C8F80400D4F81080C5F38705053546EAD0
:105210000535A8B2B847A8F80C00236900229A7493
:10522000DA742046BDE8F0874046084B9847F8E717
:105230002046074B98470024F3E700BF492640006B
:10524000D52740007D1340009113400061284000A5
:10525000892F40002DE9F84306460C469946143242
:105260001144002289B20120144B9847804610B3A4
:105270004568708B124FB8472880B08BB84768805C
:10528000C5F80490B06A0F4B9847A860A008053095
:10529000000300F4704040F01000B847A881F08D82
:1052A000B847E88100232B746B74AB74EB74F28DF8
:1052B000B36A134433634046BDE8F883B92840001D
:1052C0007D134000911340002DE9F04F8BB00893FF
:1052D000059139B306469346027E931EDBB2022B3C
:1052E00002D9072A40F05381BBF1000F07D0B6F86E
:1052F00066305B451ED3B6F86830072B21D8B6F868
:1053000062305B08F28E934228BF13460693B6F8CC
:105310006890F76EEFB9B846002304939A461C468E
:10532000079373E09E4B40F27F129E499E489F4C2C
:10533000A047FEE7B37F63F07F03B3774FF0FF3002
:1053400081E0B37F63F07F03B3774FF0FF307AE003
:105350001F463B68002BFBD103933B7B03F001000E
:1053600003F00203002B14BF0C2200223B89069994
:10537000C91AA1EB8001891A89B2B6F86AA0BAF1FC
:10538000000F0DD05A46D34528BF5246AAEB020A59
:105390001FFA8AF00490891A89B29246B84603E04F
:1053A000CDF810A0DDF80C80002918BFDA452AD20C
:1053B0004BB3ABEB0A058D42A8BF0D46ACB2002241
:1053C00003207B4B98470790002800F0E380438937
:1053D0001B1B9BB219460493048144817B890B44B7
:1053E0007B812246059B03EB0A0105464068714B11
:1053F00098475444A4B228466F4B984781441FFAFB
:1054000089F9B84602E0544600230793A34540F2C9
:10541000938000230393049309971DE04046674B54
:105420009847B37F63F07F03B377079B13B11846A8
:10543000624B9847039B002B00F0A6801846604BF8
:1054400098474FF0FF300BB0BDE8F08F03902C442D
:10545000A4B20493A34534D9ABEB0405ADB20699CD
:105460008D4228BF0D4600221046514B984780467A
:105470000028D6D043895B1B9FB2058145812A460F
:10548000059B191940684B4B984740464A4B984733
:1054900081441FFA89F9B9F1080FBFD8F36D0022D2
:1054A0000092234441463046DFF82081C04703463E
:1054B0000028B6D04781039A002AC7D0049A10600A
:1054C000C5E798460497099FBAF1000F0AD07C6897
:1054D000002C48D13B8953443B817B89A3EB0A0ACA
:1054E000A7F80AA0BDF81030A6F86A30079C3CB1B6
:1054F00021467868334B98473B89228913443B8186
:10550000002F32D0039B3B60F36D5B44F365B6F82C
:105510006630A3EB0B0BA6F866B0A6F86890B8F15E
:10552000000F2DD0D8F81040002C2BD0089B13F082
:10553000020F1DD0002086E700230393C4E71C461A
:105540002389534423812368002BF8D16389606841
:10555000524605991844A8476389534463812368D8
:10556000002BB7D0EBE7134DEAE7039BF366CBE7DD
:10557000A5890820144B98472843A081002062E7A2
:10558000002060E700205EE74FF0FF305BE76FF040
:105590000C0058E7B37F63F07F03B3774AE700BF9F
:1055A00038B2400074B24000C0A740008972400089
:1055B000B928400011734000612A40006128400072
:1055C000B12F4000812A40007D13400085514000EA
:1055D000B0F86830072B22D8F0B583B001F0020391
:1055E000C1F34006002B14BF04270027B0F8663033
:1055F000002B4ED00D460446002239461046264B5D
:105600009847014690B10096E36D2A462046234E06
:10561000B047014688B1E26EBAB9E06619E0837F0F
:1056200063F07F0383774FF0FF307047A37F63F011
:105630007F03A3774FF0FF3029E0A37F63F07F0360
:10564000A3774FF0FF3022E01A461368002BFBD1FE
:1056500011600023A4F86A3015F0030F07D0E36D42
:105660000133E365B4F86630013BA4F8663015F009
:10567000010F03D0A37F43F02003A3774868084BB2
:105680009847B4F868301844A4F86800002003B0C4
:10569000F0BD4FF0FF30FAE7B928400085514000D7
:1056A000612A400070B50546C46E0CB90AE01C467C
:1056B0002368002BFBD1236998890B4B984710F086
:1056C000070F04D001212846084B984770BD266972
:1056D000B4890120064B98472043B081AB7F43F04B
:1056E0002003AB77002070BD87134000D1554000E8
:1056F0007D1340002DE9F04182B00446006D164B49
:1057000098470346002211462046144DA84700B38F
:1057100005464768A37F23F00303A377261D03896B
:105720000093062332462146DFF83C80C04738828A
:10573000A37A06220192627A0092324621462846D6
:10574000074CA0472846074B9847002002B0BDE809
:10575000F0816FF00100F9E79113400055524000CD
:10576000591A40006128400055164000A24B1B68A2
:10577000834200F065812DE9F04F85B00546B0F811
:105780006020B0F84C309A4228BF1A469246C46E48
:10579000837F13F0020F14D07CB123695868974BB4
:1057A00098472389AA6C9B1A1844824505D3D5F8DB
:1057B0007080B8F1000F0FD115E02846904B984744
:1057C0003BE1D0F87080B8F1000F05D15CB900233F
:1057D000A5F86A302CE19846D8F80030002BFAD1B1
:1057E000002C00F02181854EDFF834B2A2E0B5F83C
:1057F00066203AB1B5F86820072A03D813F0A00F45
:1058000000F012812368EB662B7E022B0CD0D4F8BB
:105810001090B9F80C701020D8473843A9F80C0044
:10582000AB7F23F00303AB772769A86A754B9847D2
:10583000B8602769E88DD847F881EA8DAB6A1344D0
:105840002B63237B13F0010F40F09480B5F93430C3
:10585000B3F1FF3F00F09A800DB12B6833B9281DDA
:10586000694B984700282ED043682B60AB6B002B08
:1058700000F08F806268236951685B1A9BB251897E
:10588000C91A518161680A89D31A0B816368226938
:105890005A60236900221A745A74276960682A1DA5
:1058A00003890093062303922946DFF87891C847BD
:1058B0003882AB7A6068062201926A7A0092039A73
:1058C0002946524FB84723695868B0470746B4F88D
:1058D0000890236998894E4B984710F0030018BF31
:1058E0000120484407442B6DDB1B002BB8BF2F65FC
:1058F000278923699889464B984710F0030018BF01
:105900000120F84273D0002323602B6F002B48D076
:1059100023695868B0470746D8F810305868B04730
:10592000381A002840DBC8F80040A046EC6E002C76
:105930003FF44DAF23695868B047AB6CC01A238958
:105940001844824570D32B6F002B3FF45BAFAB7FC5
:1059500013F0440F7FF456AFEA6E002A3FF447AFCE
:10596000116800297FF44EAF1189EA8E9142BFF48D
:1059700049AF3CE72769291D40F2B450254B9847B1
:1059800040F001701F4B984778615FE70023AB86BA
:1059900062E7214B1B68AB6323695868B047E86333
:1059A00068E72C67A046C1E705F170092B6FC3B10A
:1059B00022464C4691461B695868B0470746D9F8BD
:1059C00010305868B047381A002807DA246823686E
:1059D000002BF0D14B46A1461C4602E04B46A146A7
:1059E0001C46D9F800302360C9F800409EE72046E5
:1059F0000A4B98479AE700BFE4494020A9134000AA
:105A0000F55640009113400051174000591A4000CC
:105A100087134000E9384000D0494020892F4000DA
:105A20007D13400055164000EB6E002B3FF4CFAEC7
:105A3000AB7F03F07F03AB77002005B0BDE8F08FAC
:105A4000002070472DE9F04F83B081468A46934687
:105A500098460022142101201F4B9847002836D079
:105A600005464468BDF830001C4EB0472080BDF8A4
:105A70003400B04760804846194FB84760605046D0
:105A8000B847A06045F21400B047A08100260B2360
:105A9000A3736823E37326746674A674E6742B8973
:105AA000009306234246594628460E4FB8472082A7
:105AB000062301930096FF234246594628460A4C86
:105AC000A0472846094B984703B0BDE8F08F084827
:105AD000084B9847F8E700BFB92840007D13400005
