S02B0000646973742F52656C656173652F70726F64756374696F6E2F544849524450415254595F4C5749505F86
S214400000484E4020F50E4000F30E4000F30E4000F0
S214400010F30E4000F30E4000F30E400000000000D8
S214400020000000000000000000000000F30E40004A
S214400030F30E400000000000F30E4000F30E4000B8
S214400040F30E4000F30E4000F30E4000F30E400067
S214400050F30E4000F30E4000F30E4000F30E400057
S214400060F30E4000000000001D0C40002D0C400028
S2144000703D0C4000F30E4000F30E4000F30E4000EF
S2144000804D0C40005D0C4000F30E4000F30E400067
S214400090F30E4000F30E4000F30E4000B560400003
S2144000A0F30E4000F30E4000F30E4000F30E400007
S2144000B0F30E4000F30E4000F30E4000F30E4000F7
S2144000C0F30E4000F30E4000F30E4000F30E4000E7
S2144000D0F30E4000F30E4000F30E4000B95C4000C3
S2144000E0F30E4000F30E4000F30E4000F30E4000C7
S2144000F0F30E4000F30E4000F30E4000F30E4000B7
S214400100F30E4000F30E4000F30E4000F30E4000A6
S214400110F30E4000F30E4000000000000000000018
S214400120F30E4000F30E4000F30E4000F30E400086
S214400130F30E4000F30E4000F30E4000F30E400076
S214400140F30E4000F30E4000F30E4000F30E400066
S214400150F30E4000F30E4000F30E4000F30E400056
S214400160F30E4000F30E400010B5054C237833B92B
S214400170044B13B10448AFF300800123237010BD35
S214400180E00940200000000058A340000C4B43B15B
S2144001900C480D4910B5AFF300800C48036823B9EE
S2144001A010BD0A48036833B97047094B002BF7D097
S2144001B0BDE810401847064B002BF5D0184700BF47
S2144001C00000000058A34000E409402058A3400027
S2144001D00000000038B50D46114B012128469847CF
S2144001E00C20104B98470146B8B1002401234560C7
S2144001F003704470846028460B4B984728460B494A
S2144002000B4B984728460B490B4B984728462246A7
S2144002100A490B4B9847204638BD4FF0FF3038BD53
S2144002207D2A4000C1204000B52A400061034000BE
S214400230B92A400045024000C32A4000F903400066
S214400240CD2A400008B1014B18477047891F40002F
S21440025010B50B4C0B4B9847206078B140F6B8323F
S21440026009490A4B984748B9FF212068084B9847E8
S21440027008492060084BBDE81040184710BD00BF35
S214400280FC094020D13240004C95400039284000BF
S214400290DD284000D5014000C92A40002DE9F0473E
S2144002A005460E46134FDFF85480DFF85490B46886
S2144002B024B16289B5F86630934201D2BDE8F08732
S2144002C0012361682846B84770B92068B4F80AA088
S2144002D0B06000B1C0472046C8470028FBD0514612
S2144002E02846054B9847E2E70130E7D1B460BDE8C1
S2144002F0F08700BFA5494000E92940008925400015
S214400300B923400070B504460D460E4B0021984771
S214400310002120460C4B9847002120460B4B98471F
S214400320002120460A4B984700222046094B11469A
S214400330984715B12846084B98472046074BBDE8D6
S21440034070401847B52A4000BF2A4000B92A4000EE
S214400350C32A4000CD2A4000891F40001933400080
S214400360F8B504460F461D4616469AB903238568D7
S214400370037025B90146194B3846984708E0184996
S2144003803846184B3546984721463846164B9847C8
S2144003902846F8BD2BB1002383603046134B984760
S2144003A0F6E70378012B0AD1022303700C4938463E
S2144003B00C4BA6609847214638460B4BDDE7022B90
S2144003C006D180680028F1D01146094B9847DFE7F0
S2144003D011893846074B9847A560DEE7050340007D
S2144003E049044000BF2A40009D024000B923400017
S2144003F0D1254000E929400070B50E46054690B12B
S21440040084684CB10B4930460B4B984729463046DA
S2144004100A4B9847002070BD0378032BFAD101465B
S214400420074B3046F5E70846064B98476FF00900FD
S21440043070BD00BF49044000BF2A40009D024000F6
S214400440050340006131400038B5002304460D46A0
S214400450437083684BB108492846084B9847214665
S2144004602846074B9847002038BD0378032BFAD11F
S2144004700146044B2846F5E749044000BF2A4000A1
S2144004809D0240000503400070B51048104C114DC9
S214400490A0473E210020104B9847A8470028FCD094
S2144004A00E4B98470E4D0F4A0F4B9A62A8470028AE
S2144004B0FCD002200D4B98470D4B102098470D4B13
S2144004C0984723460C48BDE87040184780D1F0084E
S2144004D061104000250D4000DD0C4000350D400009
S2144004E0450D4000013F182000060E406D0C4000B0
S2144004F0990C4000990F4000C06878042DE9F041FF
S2144005000E46144688B915460A4FDFF82C80611B04
S214400510002D314403DC24EAE470BDE8F0813868FD
S214400520013DD8F800309847F1E74FF0FF30BDE87E
S214400530F08100BF943940208C3940200138022891
S2144005402DE9F0410E4612D88D180C460A4FDFF8BA
S2144005502C80AC42A4EB060001D1BDE8F08138689F
S21440056014F8011BD8F8003098470028F1DA4FF00D
S214400570FF30BDE8F08100BF9439402090394020DC
S21440058000F01F024009012300F5001093400A07BF
S21440059000F207704FEA40201ED54366CA061DD5B6
S2144005A0C0F894308A061CD5036511F0C00F1AD0E7
S2144005B003620A0619D5C0F88430026F11F0010FA5
S2144005C014BF1A439A4389070267426F4CBF1343CE
S2144005D022EA0303436770470366DFE7C0F89030BC
S2144005E0E0E74365E1E74362E3E7C0F88030E4E7ED
S2144005F04FF400422C4B70B5A3F54563C3F8542C1A
S2144006002A4A5A60A2F580725A60BFF34F8FBFF3F2
S2144006106F8F274BD3F8902222F00102C3F8902226
S214400620D3F8942222F00102C3F89422BFF34F8FEE
S214400630BFF36F8F1F4C0A20A0470B20A0470C200B
S214400640A0471020A0471120A0471B4C4FF40003A2
S2144006504FF40075194E882123610920C4F8A03054
S2144006602363174B1D61C3F8A0501D636561C4F832
S214400670A050B047C4F8C0500021C4F8D45015204C
S214400680C4F8B050B0470F4A4FF40013032124205B
S2144006906360D2F8143143F01003C2F81431B04707
S2144006A01022094B5A6070BD50180E400C08005A74
S2144006B000ED00E0550D4000000E0E408105400064
S2144006C000120E400080084000100E40F7B5036848
S2144006D01746284D012243F0100304460E46036099
S2144006E06B46A84720B1236823F01003236007E039
S2144006F0009B5B0706D42368FF2023F0100323608B
S21440070003B0F0BD002FEED001AB1E22314620468E
S214400710A8470028E7D10099CF041FD5019B13F0C6
S214400720050F0CBF012300238E0419D5019A02F051
S2144007300202002A0EBF0122002201230D0502D527
S2144007400199C9070ED473B1636843F0010363602F
S214400750636862B143F002036360C4E70123E3E7E2
S2144007600122EBE70022636823F00103EFE723F062
S2144007700203F1E7550A40002DE9F34103680022E1
S214400780DFF81C81044643F010030D4646460360DE
S2144007906B46C04720B1236823F01003236043E034
S2144007A0009B02462946204623F4B043394F43F483
S2144007B080630093B8470028EDD140F2E11304224D
S2144007C029462046B8470028E5D102466B462946CA
S2144007D02046C0470028DED1009B024629462046D8
S2144007E043F444530093B8470028D4D1009B0246B4
S2144007F02946204623F4806343F400730093B847A9
S2144008000028C8D1244F6B46012229462046B047CF
S2144008100028C0D1009B980609D4013FF3D1236835
S214400820012023F01003236002B0BDE8F08101AB45
S214400830052229462046B0470028ACD1019BD90561
S21440084022D45A061ED413F0800F03461DD1626888
S21440085022F0010262608BB1636843F0020363607A
S214400860E36823F00103E3600C4B1A6842F0080289
S2144008701A601A6842F004021A608CE7636823F034
S2144008800203ECE70123E2E70123626842F001023B
S214400890E0E700BFA90A400040420F0000000540C4
S2144008A0550A40002DE9F341036802AE114D00227F
S2144008B043F0100304460F46DFF83C8003604FF4D5
S2144008C0004346F8043DA8470A25334600223946E9
S2144008D02046C047019B013D1B0401D5002DF4D1A5
S2144008E02368281C23F0100318BF0120236002B0A1
S2144008F0BDE8F081A90A4000550A40002DE9FF47AF
S214400900012700230E46154600973A464FF480616D
S2144009100446DFF83C814048C0473A464FF4002141
S2144009203E4F3F48B84700224FF000513C48B8473A
S2144009303C4B40F2FF324FF000613B4898473B4FFC
S21440094031463B48B8473B4BB9469D4250D83A4B58
S2144009509D4251D8394B9D4251D8394B9D4251D832
S214400960384B9D4251D8384B9D428CBF4FF4802522
S214400970002563680DF110080222314623F4E01387
S2144009802046324F636063681D43002365603546EA
S21440099048F8043D236843F0100323604346B847B5
S2144009A0039B222B34D04FF0200A013543460222C7
S2144009B0204605F01F052946B847039B222B29D021
S2144009C00AF1FF3A1AF0FF0AEFD14FF0FF0A236808
S2144009D0BAF1FF0F23F01003236009D043460122EB
S2144009E029462046B847564502D031462046C84795
S2144009F0002004B0BDE8F0874FF4A015B9E74FF4E7
S214400A008015B6E74FF44025B3E74FF40025B0E72E
S214400A10B246DCE7AA46DAE700120E40750B400005
S214400A20000E0E40F50A400000140E40A508400097
S214400A3000000540001C4E0E00688909000E27077E
S214400A4000B4C404005A6202002D3101550A400029
S214400A50A50B400013B584686407FCD59204C9050D
S214400A6002F4F80201F0786142F0C04242F40032EB
S214400A700A430C494263002201928268540708D513
S214400A8082685207FCD5426B002092B21A6002B0D0
S214400A9010BD019A01320192019A8A42EDD9012095
S214400AA0F5E700BF3F420F0013B584686407FCD5E6
S214400AB09204C90502F4F8029BB201F0786142F054
S214400AC0A04242F400320A431A4300234263084AD3
S214400AD0019383685B0702D5002002B010BD019BDE
S214400AE001330193019B9342F3D90120F5E700BF00
S214400AF03F420F00B1F1C05F426410B52ED007D818
S214400B00B1F1006F14D0B1F1805F1ED039B910BD7D
S214400B10B1F1205F0BD004D8B1F1005F27D042601E
S214400B2005E0B1F1405F02D0B1F1605FF7D110BD92
S214400B30016FD343046F21401C4619400167436F41
S214400B40416F0B4023404367E9E7036F1343036756
S214400B50436F416F0B4023EA0203F4E7036F016FD4
S214400B600B4023EA02030367436F1343EBE7036F2D
S214400B701343F8E7D30741640BD5416612F00A0FDA
S214400B8009D00162930708D5C0F880104161016022
S214400B9070470166F2E74162F4E71307F6D5C0F8FE
S214400BA08410F3E710B5029C41643CB141663BB10A
S214400BB001653AB101630161016010BD0166F6E767
S214400BC04165F6E74163F6E7C06C7047806C704756
S214400BD0F8B504460E4B0E46984705460D4B204644
S214400BE09847054013D00C4C04F160072368B34285
S214400BF008D16168294205D0E36830469847636863
S214400C0025EA0305BC4202D01034002DEED1F8BDD3
S214400C10C90B4000CD0B4000000A40200A21014885
S214400C20014B1847000E0E40D10B40000B210148E7
S214400C30014B184700100E40D10B40000C210148D4
S214400C40014B184700120E40D10B400010210148BE
S214400C50014B184700140E40D10B400011210148AB
S214400C60014B184700160E40D10B400002380228B0
S214400C7096BF074B002133F81010064B1A6B22F430
S214400C8040720A431A639A6E1207FCD5704700BF3B
S214400C904495400000060E400F4B1A6B22F070023F
S214400CA0104340F601021863996E08070CD51A6B7C
S214400CB022F0030242F002021A6340F60102996EE5
S214400CC0090705D500207047013AEDD1012070474D
S214400CD0013AF4D1FAE700BF00060E400E4A136A06
S214400CE028B10E4919400E4B0B431362704723F44C
S214400CF05C13090223F0030389B243F45C1343F008
S214400D0001030B431362936EDB07FCD5136A43F073
S214400D109B7343F48033E8E700060E40FCFFC8FEB2
S214400D2002003701024B986E00F48030704700BFD7
S214400D3000060E404FF00052014B9A62704700BFCB
S214400D4000060E40024B986E00F00200704700BF4F
S214400D5000060E40064B00F07F00C3F80C01002052
S214400D60D3F80C2142F01022C3F80C21704700BF84
S214400D7000060E4010B589010224431844504FF037
S214400D80FF319962196A5A6010BD890105234350A4
S214400D90704700EB8111CA61704700EB81114A62CF
S214400DA07047F0B5022487B00194082401AF02943E
S214400DB020240394802404940C9CE40B0594002483
S214400DC057F82450B1FBF5F686424FEA164E04D348
S214400DD0864505D90134052CF2D1002007B0F0BD78
S214400DE002B1156003B11C600120F7E743699B0719
S214400DF002D5C16100207047012070474369DB0778
S214400E0003D5836900200B70704701207047B2EB12
S214400E10011F30B52CBF1024082461434B0803EB58
S214400E20C2024FF6FE73B2FBF1F2D1084D1E9D4250
S214400E300CD8082C03D1436843F4002343601204C3
S214400E4002F4E0220A430262002030BD012030BD99
S214400E50084BC0F8E4300023436043628362882333
S214400E600360242303604FF4807303604FF4002331
S214400E70036070470041535570B50D4B05460C4610
S214400E800C4E98470023336009B9012070BD0968AD
S214400E90094B98470028F8D1A26863681343226933
S214400EA01343E26813436A68336013436B6070BD54
S214400EB0510E4000700A40200F0E40004023036051
S214400EC0704710230360704743699B0704D5C1F3FE
S214400ED00801C16100207047012070474369DB0765
S214400EE005D583690020C3F308030B6070470120D3
S214400EF07047FEE707B51D4B1D4A9A422AD11D4B47
S214400F0000211D4A93422ED31C4B1D4A23F07F03DB
S214400F109360EFF31083B3FA83F35B09019372B6E1
S214400F20BFF35F8F174A00231749137001980B6869
S214400F3043F470030B60BFF34F8FBFF36F8F20B146
S214400F4001231370BFF35F8F62B6104B9847104B68
S214400F509847FEE7043A0F498B42D0D252F8040F26
S214400F6043F8040BF8E743F8041BCBE700004020A7
S214400F7058A34000E0094020484A40200000400076
S214400F8000ED00E00000402088ED00E0C563400032
S214400F90F5624000E00940202B4A2C4B10B5116BFF
S214400FA001F00301012917D00CD3022925D0116B7B
S214400FB001F07001702941D11A680321B2FBF1F2A9
S214400FC01A6010BD224949690C064CBF4FF40041D7
S214400FD04FF4FA411960EAE7116AC80101D51D4984
S214400FE0F8E71D491960116A01F07001102902D016
S214400FF02029F4D0DBE71949ECE7116AC90101D58D
S214401000144919E014491960116A01F07001102959
S21440101011D02029F4D0116B01F003010229C6D16A
S214401020946A1968906AC4F30A44C0B204FB01117A
S214401030B1FBF0F1CEE709491960ECE7116B1A688D
S214401040C1F30211CA40BBE700060E400400402030
S21440105010180E40001BB70000093D0000127A0031
S214401060114B9842114B03D84FF080621A6070477C
S2144010700F4A904201D80F4AF8E70F4A904201D8EB
S2144010800E4AF3E70E4A904201D80E4AEEE70E4A61
S214401090904202D84FF00422E8E70C4A904294BFB0
S2144010A00B4A0C4AE2E700BFBFF35E01000C0E405D
S2144010B07FE7BD02000100043FDB1C040002000481
S2144010C0FFCE7B0500030004BFC2DA067FB63908B0
S2144010D00005000400060004074B1A680AB9074AD0
S2144010E01A601A68064910448142A6BF1860104626
S2144010F04FF0FF30704700BF740A402048504020F1
S214401100FCFF45204FF0FF3070474FF4005300205F
S2144011104B607047012070470020704740BA80B24D
S214401120704740BA80B2704700BA7047004B1847C5
S214401130291140002DE9F0431D4B85B006468946EF
S21440114090462421002201209847054660B3446813
S2144011500023376884F8009084F801802371637117
S214401160A371E37142683368083203F11C0153F8F7
S214401170040B8B4242F8040BF9D1002620460D4B57
S214401180A670E6706989984704AA60803146FB6875
S2144011902846094C42F8043D012300960193FF235C
S2144011A0A0472846054B984705B0BDE8F08300BFEA
S2144011B0012440001D14400049174000B923400058
S2144011C02DE9F04F466887B08946464F3578044645
S2144011D0DFF8348105F00F05AD00C5F1000B0FFABE
S2144011E08BFB5946B847B0B92389032B13D963689C
S2144011F01B78082B0FD1DFF808A149463A4ADAF89F
S214401200000000F0F00305939047CDF810A010B909
S214401210059BE02B05D12046434607B0BDE8F04F7E
S21440122018472389072BF6D92046304B9847002885
S214401230F1D1222120462DB2B84700284AD029466F
S2144012402046B84702460028E5D121890220284B8F
S214401250984782460028DED02146264A90470028F6
S214401260D9D159465046DAF80460B8470028D2D15A
S21440127020465446C047049B4FF6F67162684FF0CE
S214401280FF0A1B683046F3601B4B1B683361002324
S214401290137053888B424FF014018CBF09330833C8
S2144012A05380002386F808A0B372F372134B984716
S2144012B0294670812046B84702460028ABD1012314
S2144012C0CDF808900E4920460E4D8DE80C0053464A
S2144012D0A847A0E76FF021012046B84700289AD1DA
S2144012E0C9E700BF41234000891740002D14400045
S2144012F001244000ED254000983940201D14400050
S214401300A03940204D164000B92340000A4604301C
S2144013100321014B184700BF351140000A460430F0
S2144013200B21014B184700BF35114000002310F039
S214401330010213B5ADF806301FD0994224DD431C98
S214401340013900788DF807000020012917DC02D10A
S2144013501B788DF80630BDF80630034498B200EB93
S214401360134398B200EB134022B10302C0F30720A8
S2144013709BB2184380B202B010BD0346E4E733F890
S214401380024B02392044E0E71846E4E72DE9F047EF
S21440139000250646884691461F462C46DFF878A02C
S2144013A01EBB25B12102C4F3072489B20C43D9F8E9
S2144013B00020D8F80030100C164D10FA82F010FAC3
S2144013C083F000EB134004443846A8470444BDF875
S2144013D02000A847204484B204EB1044A0B200EB9F
S2144013E01440C04380B2BDE8F08771897068D0472A
S2144013F073890444DB07A0B200EB144407D52302EC
S214401400C5F10105C4F307249BB2EDB21C43366810
S214401410C6E700BF1D1140002D13400008B5024B23
S2144014209847C04380B208BD2D134000F8B500254C
S2144014300646104F2C4646B925B12302C4F307246E
S2144014409BB21C43E04380B2F8BD71897068B847D0
S21440145073892044DB0784B204EB104407D523028B
S214401460C5F10105C4F307249BB2EDB21C433668B0
S214401470E1E700BF2D1340000C4B1B684BB90C4AEC
S214401480126882B192F82D1011F0010F18BF134662
S21440149009E093F82D20D207EFD5596802684A40F4
S2144014A099680A42E9D11846704700BFBC494020B7
S2144014B0C04940202DE9F74F466804460F46357828
S2144014C02B09042B06D02046504B9847002003B0EB
S2144014D0BDE8F08F05F00F054D4B7088984763893F
S2144014E0AD008046AB42EED323898342EBD32946F8
S2144014F03046484B98470028E5D14146464B204663
S2144015003D4698473369454A4FF0010ADFF834B103
S21440151013609046424BF16899461960414B95F8E6
S2144015202D20D20704D4BAF1000F3FD12D683FE0FA
S2144015306A68002AF7D0D8F80000824205D02946CB
S21440154001939847019B0028EDD03946D9F8000012
S214401550DFF8D0A0D0470028B5D1D9F8003003F046
S214401560F003E02BAFD0002DADD0F38823F0C003BE
S21440157033B120462C4B984704460028A6D04668F0
S214401580DFF8C4B03946294D2046294BCBF80070C9
S2144015902E609847C0B9737A062B1ED0112B0FD0F9
S2144015A0012B1ED139462046224B0CE0DBF800507A
S2144015B0BD424FF0000A08BF2D68002DAFD1C4E7EA
S2144015C0394620461C4B98470023CBF800302B600A
S2144015D0C9F80030C8F8003078E739462046174B3F
S2144015E0F1E73946D8F80000D04750B9D8F800306F
S2144015F003F0F003E02B04D0666002212046104B37
S21440160098472046014B9847DEE700BFB923400085
S214401610231140001D14400025254000A0394020DD
S2144016209839402089174000A5194000A439402029
S2144016305D274000C11140002D5440002D3F400022
S2144016400D134000BC4940209C3940202DE9F04F06
S21440165087B01C4607468B469DF8443016469DF894
S21440166040800293DDF84890002A55D01421324A33
S2144016709047019000285BD17D68029B2C726B726C
S21440168044EA0324306885F801804FEA082881B28E
S21440169028614FEA104A4520284B48EA000828703F
S2144016A038890391444402939847019A804668805B
S2144016B0AA71EA71224A029B108801929847019AC1
S2144016C0A8801388039901331380BBF1000F02D022
S2144016D0DBF800300BB9D9F80430EB60EB6814FA4D
S2144016E083F404EB134421448A44C244504483B2F6
S2144016F003EB104000EB1040C0436881B9F824303B
S21440170083B13A899A420DD93246494638460D4BFE
S214401710984707B0BDE8F08F436806AE1B6946F8A9
S214401720043DEBE7D9F81430324639464846EFE7F1
S2144017306FF00100EDE700BF412340001D1140005F
S214401740780A4020A51C4000F0B5054685B01F46E7
S21440175010460B4B0E461446984770B19DF82C30F9
S214401760224602903146019328469DF82830054C83
S21440177000933B46A04705B0F0BD6FF00300FAE784
S214401780791440004D164000431E033311D891F89B
S2144017902D3013F002030ED04A6890420BD08B686F
S2144017A042401A4207D1DB4383430CBF012000204E
S2144017B0704701207047002070472DE9F3470F46D9
S2144017C003680DF1070C0DF1030000254FF00A0EDB
S2144017D04FF02E080193447800230DF1080A03F1D8
S2144017E00109B4FBFEF60EFB16449A445FFA89F9EB
S2144017F030340AF8084C16F0FF0417D100F8014FB1
S214401800ED1B3C46FF2B04EB050611D1964206F134
S214401810010519DA604504F1010784F80080DAD141
S21440182000230846237002B0BDE8F0874B46D4E755
S2144018305F1E9642FFB207DA02AE334413F8083C06
S21440184004F8013B3B46DDE70020ECE71022014967
S214401850014B18477A0A4020BB1740002DE9F04755
S214401860466804460F4673689A88002A2FD11B683C
S21440187000F11C01436000F10803726853F8040B42
S2144018808B4242F8040BF9D101213046164B98475B
S214401890164B30469847164B85B230469847666892
S2144018A0DFF84880DFF848909EB9124A2146052066
S2144018B013689C4223680CBF13603B600E4B9847EE
S2144018C00E4A284613885B1B1380BDE8F087002528
S2144018D0E5E773683046D3F800A0C0470544304675
S2144018E0C8475646ADB2DFE71D1340007925400095
S2144018F0B92340008C0A4020152240008A0A402026
S2144019002DE9F84306460F460025DFF86480DFF8E9
S21440191064900024D8F80030214620464BB908B1E0
S214401920C8470544BD4201DA012CF2DC2846BDE832
S214401930F883D6F80CE05A69724509D1D6F810E01B
S2144019409A69724504D1B3F80CE0B288964507D040
S214401950013458B193F81FE0C27F964598BF1846A9
S2144019601A68002A18BF19461346D7E71846F7E7FD
S2144019708C0A40205D184000084B70B5002418685B
S214401980074E00B970BDC37F056823B1013B0446CE
S214401990C3772846F5E72146B047FAE78C0A402049
S2144019A05D1840002DE9F04F446885B00546237821
S2144019B003F00F03052B40F09480AD4EE088B0470F
S2144019C001906088B047DFF8B892237802902846A6
S2144019D0DFF8C4820393C047B9F800300746CDF815
S2144019E0008003440A2B72DCA24A4FF0000AD2F869
S2144019F000809146B8F1000F78D10520DFF89CB200
S214401A00D847804650B9394620469B4B9847874230
S214401A1067DC0520D8478046002862D02022002177
S214401A204046964B9847032208F1080104F11400FB
S214401A3088F81F20D9F80020C9F80080C8F8002090
S214401A40224652F804EB824241F804EBF9D18C4A24
S214401A5011880F441780E188144611F0200F10D1EA
S214401A6098F81E20039B42F0010288F81E2003F0DF
S214401A700F02029BA3EB8202019B02EBC302A8F873
S214401A801C20D5F80490B9F80200B04799F80070C9
S214401A9007F00F07A0EB8707B9F80600B047C0F37A
S214401AA00C00BFB26968C0000022012307440A70D8
S214401AB04A70BFB28A70CA708880CF80D8F80460F7
S214401AC046BB002A40F09580C8F8045033E00146F3
S214401AD0694B2046984720B1B9F800303B440A2B62
S214401AE082DD2846674B9847002570E0E268D8F8C4
S214401AF0141091420AD12269D8F81810914205D1A3
S214401B00B8F80C10A288914200F09680C246D8F8E9
S214401B1000806FE7D6F804C0BCF8049048455AD217
S214401B200E60002AD0D0D688864272D8BCF8040010
S214401B30B8426ED3156098F81E2012F0010546D0C4
S214401B40002BD1D0D8F804506A689288002ACBD1AE
S214401B500A68002A54D1B8F81C2008F11C00143238
S214401B60A8F81C2008F108026D682E68294652F82D
S214401B70047B824241F8047BF9D1434AB8F81C0002
S214401B809047002268801421AA712846EA71AA72FA
S214401B90EA723E4A90473E4F6881DFF80491D8F893
S214401BA00450002E3CD1334905203A4B0A689045F4
S214401BB0D8F8002008BF0A60414618BFCAF800207F
S214401BC09847009B284698472388181A208028461E
S214401BD005B0BDE8F08F1CD0BCF80660864218D829
S214401BE01AB1D2884A4518BF0023DCF80060624626
S214401BF066E7D08815608A88904218BF00239AE727
S214401C005068C988828891427FF46EAF0268014668
S214401C109FE7009B284698472388181A208060E74D
S214401C20D6F804B06FF013013046B8473146284620
S214401C30C847DBF80060B4E7E088B047C0F30C0064
S214401C4000287FF404AFB8F80E00B047C0F30C008D
S214401C5000283FF4FCAE224608F1080104F11400C7
S214401C6052F804EB824241F804EBF9D1EFE600BFAC
S214401C70231140008C0A402001194000D1654000E5
S214401C808A0A4020B92340001D1140001D14400020
S214401C90412340001522400079254000D9214000CC
S214401CA0952540002DE9F04F89B08B8C82468B46B7
S214401CB00393436807920293D888394B984700F4B9
S214401CC000530822BAF808400593C0F30C09039B5A
S214401CD0143C143BA4B293FBF2F39BB20493DB0098
S214401CE09BB20693142301931CB9204609B0BDE865
S214401CF0F08F059BC9F30C080022012043EA080830
S214401D00039B133BA342274BD6BF069E264648F46A
S214401D10005831469847054688B141683246019B8F
S214401D205046214FB847019B1421034428469BB296
S214401D3001931E4B984728B128461D4B98474FF0B5
S214401D40FF30D3E7029B6A681946143153F8040BF8
S214401D508B4242F8040BF9D16F684046DFF8588052
S214401D60A41BC047F88006F11400A4B280B2C04756
S214401D70002278801421BA723846FA720D4A90478B
S214401D80079A78812946DBF8143058469847084B1E
S214401D9028469847049B4B441FFA83F9A4E700BFA4
S214401DA02311400001244000D1264000412340003A
S214401DB0B92340001D1440001D11400010B5074BCC
S214401DC09847074B9847074B9847074B9847074B0A
S214401DD09847074BBDE81040184700BF4D1F4000CE
S214401DE07D214000292240002954400035284000EB
S214401DF0CD1E400070B5154B044606200E461546CF
S214401E00984710B300231249866003600B68C5608C
S214401E1044600BB9086070BD5A68944207D2121BE2
S214401E205A600360F6E74C68A2420BD30B465968EB
S214401E304268521A426019680029F4D11A68026052
S214401E40186070BDA21A4A60F8E770BDD9214000FC
S214401E50900A4020084B1A6862B9084A126812B9BC
S214401E60074A126832B101220649FA201A60002257
S214401E70054B1847704700BF940A4020CC49402085
S214401E80E04940208D1E4000F51D4000094B10B52E
S214401E909847094B1B6813B9084B1B6833B100229F
S214401EA00749FA20074BBDE810401847064A13601A
S214401EB010BD00BF81344000CC494020E04940205E
S214401EC08D1E4000F51D4000940A402010B50022AB
S214401ED007494FF47A70074CA0470022064941F262
S214401EE08830A047054B9847054B186010BD00BF8B
S214401EF0291F4000F51D4000051F40006961400055
S214401F00980A402010B5054B98470022044941F2F4
S214401F108830044BBDE81040184700BFC15640000B
S214401F20051F4000F51D400010B5054B98470022A0
S214401F3004494FF47A70044BBDE81040184700BF80
S214401F4079194000291F4000F51D40000A4B4FF408
S214401F5080510A4A23F0030309481360002219807F
S214401F605A801A715A1802600120118051801071EF
S214401F70044A1360704700BFAB394020A00A402097
S214401F80A40A40209C0A4020F0B5002839D01D4BBA
S214401F901B68984235D31C4A1568A84231D20022A5
S214401FA0A0F1080630F8084C00F8042C174A1168CF
S214401FB08E4203EB040138BF16608E420FD00F7975
S214401FC06FB98D420BD01568A942195B20F8081CE2
S214401FD0195BA6EB030408BF166019444C8030F822
S214401FE0061C5C18A6420CD0257955B91568AE4239
S214401FF008BF146030F8082C5A5230F8082C1344A6
S2144020005980F0BDA00A4020A40A40209C0A4020E7
S21440201003314FF6FC730B400B2BF0B504D9B3F5E8
S214402020805F02D90020F0BD0C23224A126882420B
S214402030F9D8214909688842F5D2A0F1080130F85C
S214402040085C891AA5F1080489B2641AA4B29C42B5
S214402050E8D3E8D056193779C7B901F10804575B79
S214402060164D23442C689BB2A64202EB030408BFDD
S2144020702C6000252571D752618020F8083CD15A43
S214402080B1F5805FCFD00A445380F0BD03F114050C
S214402090A542C8D801F10804084D23442E689BB2D7
S2144020A0D418B44238BF2C600025257130F8085C3F
S2144020B0D552E1E7A00A4020A40A40209C0A4020CE
S2144020C02DE9F04348B103304FF6FC7303400B2B29
S2144020D005D9B3F5805F03D90020BDE8F0830C2313
S2144020E0234CC3F58058234D6FF0070927682968AD
S2144020F07A1A92B24245EFDA881831F802E090F840
S21440210004C0BCF1000F30D1A9EB020676449E42D3
S2144021102BD303F1140E764521D3083313449BB2D8
S214402120CE1886F804C0B0F800E021F803E07280CC
S214402130012203800271CA5AB2F5805F01D0114471
S2144021404B80874208D10C4B29681A6803461D7994
S2144021500DB1934206D123600830BDE8F0830123D9
S2144021600371EEE71B880B44F1E77246C2E700BFF7
S2144021709C0A4020A00A4020A40A4020124A00237D
S214402180124822F00302DFF848C02DE9F0431E460D
S214402190DFF840E004469D003EF813804FEA4309CE
S2144021A0002140F823608FB2B84504D80133092B8C
S2144021B0F1D1BDE8F08367590131176039F80C70EA
S2144021C062513A44EFE700BFAB0A4020FC2540206E
S2144021D0DE954000CC954000082810B507D9084B3E
S2144021E04FF4C77207490848084CA047FEE7084A1C
S2144021F052F8203013B1196842F82010184610BD26
S2144022005095400086954000A395400015644000D8
S214402210FC25402029B1034B53F820200A6043F8A0
S21440222020107047FC25402070470000F8B5054652
S2144022300C4659B10A6843689A4206D00D4B0E4F79
S214402240186828B90D4B1B6853B924686C60F8BDF4
S21440225002686B68C6689A4200D1B8473046F0E7D5
S2144022601A6822B169688A4204BF22681A60DB682D
S214402270EAE700BFCC49402061314000D4494020C5
S21440228070B515461C46054B0646984705B12D6861
S214402290B56004B12468F46070BD00BF2D224000D4
S2144022A0F8B5069E0025104F044606623E78456007
S2144022B006F1010E80F83060089E85600661C560B4
S2144022C080F82D50C561094E87F800E0B04720469B
S2144022D0079B984728B9064B1A6822601C60204620
S2144022E0F8BD2C46FBE700BF202640208122400058
S2144022F0BC494020014B1860704700BFC049402091
S21440230010B590F82D300446DA0712D443F0010396
S21440231080F82D30C36903B1984794F82D3003F008
S2144023203003302B05D1211D2046024BBDE810401E
S214402330184710BD0157400000B1C161704700000A
S21440234010B519B300282ED000290CDA4A4243892A
S21440235092B2934208D2144B40F20F2213491448CB
S214402360144CA047FEE78AB2047B43680CB1032CAA
S2144023700ED15B1A00F11002934213D389B2436028
S21440238043890B444381038919440181002010BDD1
S214402390013C012C06D8002904DA4489944201D332
S2144023A05B1AEBE7012010BDCF9640000597400032
S2144023B0A395400015644000F8B50146D8B1002406
S2144023C00D4E0E4DE0B201B9F8BDCB89013B9BB234
S2144023D0CB8183B90B7B0F68032B04D10820A84719
S2144023E001343946EEE7013B012B01D80720F6E7DA
S2144023F00846B047F4E7F8BD891F40001522400064
S2144024002DE9F0470E461746032844D8DFE800F08B
S2144024100D02090B2225032F3DD8DFE807F0546D47
S2144024206D080E25F7E70025F5E73625F3E7394F23
S2144024300820B8470446B84628B90122364B1A70D9
S2144024402046BDE8F08703224319002781461544FD
S21440245013339246027325F0030523F00303076007
S214402460C5F5C065436001230681B542C381A8BF58
S21440247035464581751B002D04DC0123E38100238E
S2144024806373DDE70820C04738B9234B0122204656
S2144024901A70224B98470024D2E7ABB200F11002E4
S2144024A080F80CA0B3F5C06F47730760C9F800000A
S2144024B08146038128BF4FF4C063426001224381B6
S2144024C0ED1AC281D7E705F11300F31C20F0030094
S2144024D023F003031844124B80B298470446002862
S2144024E0D9D005440023068113354681036025F084
S2144024F0030503734560C0E70720064B984704462C
S2144025000028C8D0002306814681436003600773D5
S214402510B3E700BFD9214000C4494020B92340005A
S214402520C120400038B5038904468B4218D90D4671
S214402530CB1A61898D4214D8237B4BB98D4207D084
S214402540616820460A4B091B294489B298470446CD
S21440255020686581258108B1064B98470023236093
S21440256038BD22896D1A1A44ADB222812468E0E74C
S21440257011204000B923400003460022D0B2013269
S21440258003B970471B68F9E710B1C3890133C381AB
S2144025907047000010B500B141B9094B4FF43C728A
S2144025A008490948094CA047FEE7204603890A899E
S2144025B0046813440381002CF7D1016010BD00BFAE
S2144025C0CF964000F0954000A3954000156440002B
S2144025D010B50C46034B9847034B2046BDE81040C9
S2144025E0184700BF95254000892540002DE9F8434F
S2144025F00C46054620B119B102890B899A4207D28A
S2144026002C4B40F25F322C492C482D4CA047FEE71D
S2144026104FF00008DFF8B490474663896E89A3EB15
S21440262008036868F61B616838449E424144ACBF64
S2144026309EB2B6B2324637444644C8476389BFB2B4
S2144026401FFA86F843456B899CBF24684FF0000804
S214402650BB421ED12D68DDB9BCB1164B40F27A3272
S21440266018491648164CA047FEE7628923899A42C5
S21440267011D123687BB10F4B4FF4607212490F485B
S2144026800F4CA047FEE7002CC7D10020BDE8F883DA
S2144026900027002CE9D16A892B899A42F3D12B680E
S2144026A0002BF0D0034B40F2853207490348044CD8
S2144026B0A047FEE7CF96400025964000A3954000F1
S2144026C01564400055964000629640009D64400068
S2144026D02DE9F84388461746054638B9194B40F267
S2144026E09F32194919481A4CA047FEE739B10026CF
S2144026F0DFF8649007B155B93046BDE8F883114B12
S2144027004FF4687213491148114CA047FEE733B1A5
S21440271069898B4203D35B1A9BB22D68EAE76C89C2
S21440272008EB06006968E41A1944A4B2BC4228BF04
S2144027303C46224626443C1BC847B6B20023A7B2B6
S214402740EBE700BFCF9640008D964000A395400033
S21440275015644000AC9640009D6440002DE9F84F5B
S2144027601A4D0746436800262C6893F80980DFF820
S2144027706090DFF860A014B92046BDE8F88F237C4F
S21440278043451ED123681BB1DAF80020934218D186
S214402790D4F814B0BBF1000F13D04B463A4621464E
S2144027A0A069D84738B176B1E36801200027F360C6
S2144027B02B682C60E360E36826460028DDD11C4683
S2144027C0D9E70020F7E701203746F4E724264020E3
S2144027D098394020A03940206FF00900704700002B
S2144027E0124A4FF48043F0B54FF6FF751088104EEE
S2144027F0A8424FF0000116BF01304FF4404080B26F
S21440280056F82140246824B901310429F8D11080B3
S214402810F0BD678B874206D1013B9BB2002BE7D1C8
S21440282010801846F0BDE468EDE700BF0C0040207D
S214402830909A400070470000F8B5037E05460E4665
S21440284014463BB11C4B40F2B7121C491C481D4C69
S214402850A047FEE71AB91C4B9847044628B3002207
S2144028601A4F57F822301B689BB90132042AF8D118
S21440287016B1336803B12B60154B6C831A681D6024
S214402880EA60144B984721460E4B13489847002061
S214402890F8BD598BA14206D1186848B146B1316897
S2144028A031B1884204D0DB68DEE76FF00100F8BD46
S2144028B06FF00700F8BD00BF609840009598400054
S2144028C0A395400015644000E1274000909A4000E0
S2144028D0DC494020551E4000BD984000F8B5067EB5
S2144028E005460F463EB1284B4FF403722749284809
S2144028F0284CA047FEE70320274B9847044600286D
S2144029002DD02B6903616B8B4383012303766B7E4B
S21440291043762B7A43F002030372AB7A83726B7A68
S21440292043722B6803606B8B3BB11C4A13689D4215
S21440293017D1EB6813600023EB60194B2946022041
S2144029409847184B636100239F426377164B08BF36
S21440295001271A6827771C60E260144B9847204688
S214402960F8BD13490B601BB9002EE4D00B60E2E7BC
S214402970D868854204D106B10B60EA68DA60DAE7C7
S21440298001260346EFE700BF609840006D9A40007E
S214402990A395400015644000D9214000DC49402002
S2144029A015224000D9274000D4494020551E4000FB
S2144029B0D849402070B5858D0246016B40F2B4562A
S2144029C0846A6B1A1819D38EB34294BFC31A831BFA
S2144029D0002B01DBD58570BD631A0020002BD6BFC7
S2144029E0091BD085D18570BD70B5838D40F66832A1
S2144029F004460D460B449BB2934294BF8385828522
S214402A000B4B984740F2D923984206DDA37F2046D9
S214402A1043F00203A377074B9847A28D2946064CFE
S214402A20C2F536630548A4460833BDE870406047A3
S214402A30B52940002D4E400015644000509B400094
S214402A4010B5044658B1406818B1054B9847002366
S214402A50636021460420034BBDE81040184710BD74
S214402A60B92340001522400038B5034C00B938BDA4
S214402A700568A0472846F9E7412A40004176704756
S214402A8038B50446094B04209847054660B12046B1
S214402A902B4604F1140250F8041B904243F8041BE2
S214402AA0F9D16868024B9847284638BDD92140007E
S214402AB08925400001617047C0F880107047C167A3
S214402AC07047C0F88C10704741617047C0F8881056
S214402AD080F820207047000070B5037E0446012B26
S214402AE039D90A2B37D01F481F4DA847237E032BC2
S214402AF00CD11E4B1B684BB1598B628B91422ED129
S214402B001A68002A28D15A7F013A5A77A36F33B100
S214402B101748A847174BA06F98470023A367E36E54
S214402B200BB11548A847236F0BB11448A847636FED
S214402B300BB11348A847134E0025606FB0474FF6B9
S214402B40FF73E06EA3866567B047206FB047E566C3
S214402B502567A4F86A5070BD21688A42D3D0DB68E6
S214402B60C9E700BFA09A400015644000D449402001
S214402B70AF9A4000B9234000DB9A4000FD9A4000DF
S214402B80249B4000692A40002DE9F04FAB4E85B0AB
S214402B90DFF808A3336801333360A94B1A789B46A5
S214402BA001321A70A74BDFF8F8821C68029374B99A
S214402BB0A548C047A54D0027DFF8B0822C68DFF84F
S214402BC0B492002C40F06E8105B0BDE8F08F4FF017
S214402BD000099F48C0479BF8003094F821209A424D
S214402BE004D1E768002FE5D03C46F2E7217E84F822
S214402BF02130022994F8462040F08E80062A40F084
S214402C008B8094480125C047237E062B0BD1A37F9B
S214402C10DB0608D53368626A9B1A282B03D9013530
S214402C208D48EDB2C047277A17F008071FD0237E9D
S214402C30042B02D0072B40F0D780D4F890704FF486
S214402C40FA70316807F52422636A02F6B842C91A58
S214402C50B2FBF0F2914240F2B6800135E0790127AE
S214402C60A379EDB26279217900907C48C047606FC5
S214402C7068B13368626A9A1AB4F9443003EB430386
S214402C80B2EB430F03D3764B984700236367237E0C
S214402C90032B08D13368626A9B1A282B03D9013567
S214402CA07048EDB2C047237E092B40F09F803368C2
S214402CB0626A9B1AF02B40F299806B48C0476B4B78
S214402CC020469847E368B9F1000F00F0B180C9F894
S214402CD00C304FB1A38B2246654D0193638B009316
S214402CE0231DA16A206DA84723692146614A022018
S214402CF0D4F88C500393E768904700228AF8002067
S214402D0025B1039B6FF009011846A8479AF8003092
S214402D10002B3FF467AF45E70C2A01D1564871E7D0
S214402D2094F89550DDB194F89430544A01332A44CF
S214402D30DBB212F8012C84F894309A4201D900256F
S214402D4062E7062D4FF00003204698BF013584F811
S214402D5094304B4B98BF84F895509847EFE7B4F9BA
S214402D603430002BA4BF0133A386236F002BE6D05C
S214402D70B4F93400B4F944309842E0DB02290AD072
S214402D80B4F94010B4F9423003EBE1033D498A5CA4
S214402D909340A4F844300023B4F84C202046A38641
S214402DA0B4F86030934228BF1346E28E5B08A4F81E
S214402DB04C205100A4F84E308B42334BB8BFA4F899
S214402DC04E10984720E794F89630304A02FB03733B
S214402DD0B3FBF0F3994207D92D4B2046984794F819
S214402DE09630013384F89630002740E7002D7FF474
S214402DF066AFE37F94F820200133E768DBB29A425F
S214402E00E37713D8E5772348C047D4F888308AF864
S214402E10005083B12146206998479AF80030002B2D
S214402E207FF4C0AE10B920461B4B9847A146D9E662
S214402E30029A13604DE72846EFE700BFD04940208E
S214402E4029264020CC494020819B4000E049402034
S214402E509E9B4000C29B40000F9C40003E9C400012
S214402E60692A4000879C4000B49C4000D92A400014
S214402E70CD50400015224000E89B4000499B400052
S214402E80155340005398400081514000F8240100FB
S214402E905D524000E19C40002D4E4000C849402015
S214402EA0156440003368626A9B1AF02B0AD827469E
S214402EB0E46886E6FB60D4F80CA021460220C847AA
S214402EC054467EE62046C047E368002FF2D12B608A
S214402ED0F1E700BF10B503680C468B4217D1CB68AC
S214402EE0036000232046E360124B9847237E0A2B5C
S214402EF00AD0012B08D0A37FDA0705D543F002039A
S214402F002046A3770C4B98470023237610BD0B4AE8
S214402F10002113601BB90029E3D01360E1E7D868AD
S214402F20844204D101B11360E268DA60D9E7012136
S214402F300346EFE7D92A40002D4E4000D8494020AE
S214402F4037B50446037E002941D0042B01D0072B19
S214402F503DD1A26F22B9A18D40F66832914236D05B
S214402F60A38B2246A16A0193638B206D0093231D99
S214402F70424DA847424B20469847424A13689C42D7
S214402F8002D1E36813600CE03F4A002113600BB99E
S214402F9039B1F7E7D868844216D101B11360E268C8
S214402FA0DA603A4B012200251A70237EE560042B36
S214402FB03AD10A232376364B1A681C60E260354BBA
S214402FC09847002003B030BD01210346DFE7072BBA
S214402FD0F7D801A252F823F0F92F400035304000D0
S214402FE0473040005730400057304000C32F400025
S214402FF0C32F40006D304000638BABB1264A136848
S2144030009C4202D1E36813600CE01F4A0021136023
S2144030100BB939B1F7E7D868844208D101B11360DB
S214403020E268DA600023E3602146022008E00121DE
S2144030300346EDE721461948194B98472146032099
S214403040184B9847BDE7164B21460E489847012235
S2144030500E4B1A70E8E72046134B98470028B1D12C
S214403060052323762046114B9847AAE720460E4B69
S21440307098470028A6D10923F3E700BFCD5040006B
S214403080D92A4000CC494020D8494020C849402051
S214403090E0494020551E4000DC494020D4494020AD
S2144030A0D52E400015224000654D40002D4E400074
S2144030B02DE9F347037E04468A46224E0A2B224BCE
S2144030C009D101462148984721460220334602B09E
S2144030D0BDE8F0471847D0F850800146D0F8289011
S2144030E0D0F88C5007691A4898470122194B206F30
S2144030F01A7008B1184B9847E06E08B1164B9847BF
S214403100606F08B1144B9847BAF1000F0AD0A38BF2
S2144031104046224649460193638BDFF84080009341
S214403120231DC04721460220B0473DB16FF009013C
S21440313038462B4602B0BDE8F047184702B0BDE817
S214403140F08700BF15224000D52E4000E0494020C1
S214403150CC494020C8494020692A4000CD50400014
S2144031600121014B184700BFB1304000034B044AD1
S2144031701868126810441860704700BF0800402066
S214403180D04940202DE9F0418046424E0220424F31
S214403190B047044600282BD14048414DA847414BF4
S2144031A0386822461B68002B5DD12CB121463E482C
S2144031B0A84720463D4B98470220B0470446B8B93A
S2144031C041463B48A8473B4BD7F800C04FF07F0EE0
S2144031D01B682246002B4ED12CB121463648A847C4
S2144031E02046324B98470220B0470446002837D046
S2144031F098220021314B2046984740F668330021FC
S21440320084F81980A4F86630A385E385FF23A4F8E4
S2144032106810A3724FF406736172E3860623A4F81F
S2144032204010A4F84430A4F842304FF6FF73A3860B
S2144032300123A4F84C30224B98473B68A065636254
S214403240204B20651B78A06484F821301E4BE06537
S214403250C4F880301D4BE177C4F8903084F896105F
S2144032602046BDE8F081596A411A914224BF1C4667
S2144032700A46DB6897E7587E804509D3704507D8ED
S214403280596AACEB0101914222BF86460A461C466B
S214403290DB689FE7D9214000D04940208497400012
S2144032A015644000E0494020B89740006131400036
S2144032B0F1974000CC49402028984000D165400016
S2144032C06D314000292640205533400000DD6D001A
S2144032D04020014B184700BF8531400010B5074BD2
S2144032E004460846984730B1838C23B1283B9BB2AE
S2144032F09C4228BF1C46204610BD00BF79144000A3
S214403300024B53F820100248024B1847049D4000D9
S214403310489A40001564400010B50446094B0A48D8
S2144033209847207E094B9847237E20460121012B53
S2144033301EBFA37F43F01003A377054BBDE81040A4
S214403340184700BF15644000D9984000013340003C
S214403350412F400010B5084614463AB1064B118935
S21440336098472046054B9847002010BD002BFBD1C0
S214403370034BBDE810401847E9294000B9234000F8
S21440338019334000F8B50023866FD0F880500446C5
S214403390777B8367E5B1014632460069A847054614
S2144033A0E8B9BB0612D5A38D40F66832D4F88060E3
S2144033B093421CBF0133A38546B1002321462069B2
S2144033C01A46B0470A3001D16FF009052846F8BDC5
S2144033D02B46014632462846044DA847DFE710F103
S2144033E00A05F1D0A6670025F0E700BF5533400038
S2144033F02DE9F84F1B4D1C4E2B78DFF878800133B3
S2144034002B703468194FDFF870902B780CB9BDE8F4
S214403410F88F94F821209A42F8D084F82130A37F80
S214403420DB070BD53846C047A37F204643F0020350
S214403430A377C847A37F23F00303A377A36FD4F8EB
S2144034400CB00BB95C46E0E7DFF830A0002320461E
S2144034508AF80030064B98479AF80030002BF1D097
S214403460CFE700BF29264020CC494020539A400051
S21440347085334000156440002D4E4000C84940202A
S214403480074B10B59847074A13780133DBB21370E1
S214403490DB0703D5044BBDE81040184710BD00BFFE
S2144034A0F133400028264020892B400010F0010FC1
S2144034B070B50546124C01D01248A047AA0701D560
S2144034C01148A0476B0701D51048A0472E0701D5E5
S2144034D00F48A047E80601D50E48A047A90601D5E3
S2144034E00D48A0476A0601D50C48A0472B0601D5D3
S2144034F00B48A04723460B48BDE87040184700BF1E
S21440350015644000209A4000259A40002A9A4000C0
S2144035102F9A4000349A4000399A40003E9A400024
S214403520439A4000BCA140002DE9F04F354F8BB088
S2144035300446354D3548A8473846354EA847208876
S214403540B04780466088B047414602463148A84763
S2144035503846A847DFF8D8806068C04701462E48FE
S214403560A8473846A847A068C04701462B48A84702
S2144035703846A847A089B0478246A089B0478346C8
S214403580A089B0470990A089B0478046A089B04737
S2144035908146A089B0470890A089B0470790E08947
S2144035A0B04707990490C9F38000089A01F00101DA
S2144035B00190C8F3C000099BC2F340020391CAF3CE
S2144035C00F310292C3F30013CBF34012009014481D
S2144035D0A847A089B047134B00F03F0098471248D1
S2144035E0A8473846A847208AB0478046608AB047F2
S2144035F0414602460D48A84738462B460BB0BDE824
S214403600F04F1847FD98400015644000F098400081
S2144036102311400020994000579940007E99400071
S214403620A5994000AD344000E5994000EE99400031
S2144036302D1140002DE9F84F036905461E4E0C46F5
S2144036409889B047C2071BD41C4FDFF87C80DFF850
S2144036507C90CCB1D4F810E038682B89DEF80410A2
S214403660228903440A449A1A002A10DA5B1A002B6D
S2144036700ADD091A124B686889B22981984703E027
S214403680204600240F4B98472C60BDE8F88FBEF8C4
S2144036900C00B047C30709D5D5F810B00120BBF8D9
S2144036A00CA0C0474AEA0000ABF80C00D4F800A0D3
S2144036B02046C8475446CCE72311400050264020B9
S2144036C025254000692A40001D114000412A40003F
S2144036D0A44B2DE9F14F1B780446A34F13F0100F6F
S2144036E070D0636D3A68B0F860109D1A806D002DFA
S2144036F09E4D0DDB934203D12B68C31A002B07DB8C
S2144037002B6898421ED19A4B1B68DB898B4219D98D
S214403710974BB4F862E01E68F389A4F86030F689E7
S2144037206265B6452A6838BFA4F86260A26594F818
S2144037309520002B40F00A8122B984F8943001236A
S21440374084F895302A68A66C931B002B00F32281E0
S2144037500023A4F86430874B1B88002B40F08E83F0
S2144037600144B4F86030A06D0344994240F086832B
S214403770B4F93430002BC0F28183B24240F07E83ED
S21440378094F84720531CDBB29A4238BF84F847303F
S21440379094F84730032B40F2DE80B4F84C20E38E9A
S2144037A013449BB29A4201D2A4F84C30DFF8E09121
S2144037B0DFF8CC81E36E002B40F07081A26B002ACC
S2144037C040F0A8816B4BA26A18889846002800F003
S2144037D04883237E062B00F244833B68D61A012E8C
S2144037E000F1C681C3F10101091A1144002900F312
S2144037F0BF81614D3146686843899E4240F3B68139
S21440380003899B1B00269BB24289914200F3A98103
S214403810494209B2594B984729893B68A26A0B44EA
S2144038203A609B1A2B812B695A603968A26A8B1AB8
S214403830002BC0F210834B1CA08D9B1A1B1A002B2A
S21440384000F30983914240F056824B4D4C4E2B6913
S214403850B5F808909889B04710F00300A38D18BFBC
S2144038600120484480B28342A8F800002FD22B693A
S2144038709889B047C2070FD5D5F810A0BAF80C9073
S214403880484629F47C59B0473E4B00F03E009847E6
S21440389049EA0009AAF80C90A38D2B812B699889D8
S2144038A0B0478307686842BF2B8903F1FF332B81FB
S2144038B0354B298998472B69B5F808909889B047C1
S2144038C010F0030018BF01208144A8F80090636FF1
S2144038D0002B00F05B812B699889B047C00700F148
S2144038E08681D4F87490B9F1000F2CD0D9F810E046
S2144038F03868B8F80030DEF80420B9F808100344F9
S2144039001144591A002980F275819B1A002B1ADD42
S2144039102B69121A2A819889B0478307686842BF84
S2144039202B8903F1FF332B81174B298998472B6945
S214403930B5F808A09889B04710F0030018BF0120DA
S2144039408244A8F800A0C4F874901FE1002A3FF40F
S214403950F9AE0023F4E67FF429AF20460B4B984798
S21440396024E700BF30264020502640202C2640200A
S21440397054264020582640203426402041234000EC
S214403980231140001D1140002525400005524000EF
S2144039902D114000216D511A00297BDCA17F9BB27E
S2144039A00020A2644E07B4F94060A4F8643048BFD3
S2144039B021F0040184F8460084F8470042BFA1770E
S2144039C0B4F84E10A4F84C10B4F8421001EBE601DF
S2144039D0A4F84410B4F866100B44A4F86630237E6E
S2144039E0032B0CD9B4F84E30B4F84C209342E38EF7
S2144039F015D913449BB29A4238BFA4F84C30DFF82E
S214403A006482914EDFF84892236F63B9226F002399
S214403A10002A3DD14FF6FF72A286E377C6E65B43A7
S214403A2093FBF2F3E5E71B695868C047236F82466D
S214403A30B3F808B01B699889B04710F003002B68AC
S214403A4018BF0120AAEB0303584418440028DDDCC5
S214403A50D4F870A0DAF800302367B4F864305BB16D
S214403A60DAF810309889B047C00742BFB4F86430DF
S214403A7003F1FF33A4F86430DAF80400C847B4F81A
S214403A806830181A714BA4F8680050469847BBE750
S214403A90A386C2E70023A4F8643087E61B692E6835
S214403AA05868C847E36E8346B3F808A01B69A6EB80
S214403AB00B069889C04710F0030018BF01205044F9
S214403AC0361A002EFFF67AAE2B68226D9B1A002B14
S214403AD03FF774AEE66E3368E3660BB9A4F86A3017
S214403AE0B4F8643053B133699889C047C10742BFC0
S214403AF0B4F8643003F1FF33A4F864307068544B74
S214403B009847B4F86830181A504BA4F86800304606
S214403B1098474FE6E36B29685B1A002BBFF652AE18
S214403B204C4BB4F940001968891AB4F94220A1EB0D
S214403B30E001A2EBA20289B20BB20844002B00B20D
S214403B40B8BF4942A4F84000B8BF0BB213449BB27A
S214403B50A4F8423003EBE003A4F844300023A36308
S214403B6030E60381891A468100684DE6714250E688
S214403B709B1A002BBEBFA37F43F00203A37754E6F5
S214403B8003686367C847606F0028F9D1B8F800102B
S214403B902046A38D3A685B1ADFF8CC800A44A3859A
S214403BA0A262C0476B681A891AB12B4A1360002379
S214403BB06B602B69DFF8A0909889B047C507DFF89F
S214403BC09CA041BF254A137843F020031370656FCD
S214403BD025B12969A26A4B68934247D0A37FD9078B
S214403BE040F1838023F0010343F002037FE0DFF8D7
S214403BF05C90C8E7BEF80C00B047C1071CD52B69DF
S214403C009889B047820717D4D5F810A00120144BE6
S214403C10BAF80CB098474BEA0000AAF80C002A699C
S214403C20B5F808A09089B04710F0030018BF0120EF
S214403C300AEB0003A8F80030D9F800A04846034B2A
S214403C409847D1464FE600BF23114000412A400026
S214403C5079254000D0494020482640204C26402028
S214403C601D1140002D114000B52940003B60888959
S214403C70B5F808B0B04710F00300A36A18BF01209B
S214403C8058441844A0622A69B5F808B09089B047ED
S214403C9010F00300A38D18BF01205844181AA085C1
S214403CA02046C04769680B8933B1D9F80000C8B1CF
S214403CB0744B984700236B602B699889B047C007C0
S214403CC00AD59AF8003043F020038AF80030237E65
S214403CD0042B04BF072323762B68284663676A4B6A
S214403CE0984774E7C9F80010E4E743F00103A37768
S214403CF001B0BDE8F08F2046644B9847656F25B904
S214403D006348644B98476067F2E73B68002603F1D8
S214403D10FF3E03F1010C286942689A4214D15C4880
S214403D202B8902899A42E3D95A4B98470028DFD01C
S214403D3046B130602946584B01B0BDE8F04F1847B1
S214403D400D46E8E76067F5E74EB9991A002928DA84
S214403D504F48504B98470028CAD06067EAE7316919
S214403D604968AEEB010100291BDBACEB02010029E0
S214403D7017DC4748474B984704460028B8D0336975
S214403D8039685A68338913445B1A002B05DD891A53
S214403D907068424B89B23181984734602946204644
S214403DA0C9E729682E460029CAD19B1A002B9FDDF9
S214403DB080893B4EB047C2079AD43548354B984722
S214403DC02860002894D02B6939685A682B89134498
S214403DD05B1A002B05DD891A6868304B89B2298149
S214403DE098473B68B8F80020A16A1A44A38D0B4454
S214403DF09A427FF67DAF2B681B699889B047C30708
S214403E0010D52B68D3F810A0BAF80C90484629F481
S214403E107C59B047234B00F03E00984749EA0009DA
S214403E20AAF80C90A38D39682A685B1AA16A0B44DD
S214403E3013812B6819895868184B98472B681C893A
S214403E401B699889B04710F0030018BF012004444E
S214403E50A8F800404CE720460C4B01B0BDE8F04FB8
S214403E6018473B68991A002906DB01339B1AA28D36
S214403E709B1A002B7FF73CAFA37FB5E6002384F860
S214403E80473093E495254000412A4000B94D400014
S214403E9034264020812A4000353640002525400003
S214403EA0231140001D114000F8B51E4F04461E4E1B
S214403EB03D68A889B047C0F30F3005280ED93B6847
S214403EC0143540F2B4579889B0470023000B40F2AF
S214403ED0B3560538800080B2984200D8F8BDEA5CF8
S214403EE0012A09D0FAD3022A05EB030107D04A7803
S214403EF0002AF3D0134400E001339BB2ECE74A7843
S214403F00042AEBD1DA1C8242E8DA91F802E0043364
S214403F10CA7842EA0E22511E89B2B14288BF3A465A
S214403F202280EAE754264020231140002DE9F04F36
S214403F3043688946A74E87B019788046A64C3546D2
S214403F4001F00F0103EB8103890033604942A0472B
S214403F50F8B9B8F80830132B1BD9A04F4946A04BE8
S214403F6038689847A8B93B6803F0F003E02B10D0B8
S214403F70B8F808303A46DFF8A09240460093062349
S214403F804946984FB847CDF8149040B13068964BA4
S214403F9098474046954B07B0BDE8F04F1847336802
S214403FA0934E9889B047000BC0EB80308100404666
S214403FB009B2A04783460028EBD12C688D4F208855
S214403FC0B04720802C68DFF84C926088B04760800D
S214403FD02C68DFF848A26068B84760602C68C9F86B
S214403FE00000A068B847A0602C68CAF80000E089C6
S214403FF0B0472B68E0819889B0477F4AC3B27F4874
S2144040002F6803F03F01D0F800E00598117013F0D8
S2144040100301B8F80820744618BF0121006811440F
S21440402004906E488AB2D0F800C058460292D346F2
S214404030734ABDF808100392118014B9714A10688B
S2144040408AE0B4F81CA03A88924547D1B4F81AA042
S2144040507A88924542D162681146049A91423DD18F
S214404060226862453AD128B1E268C260634AC4F821
S2144040700CE01460644E0022B8F8081013F0080FE5
S21440408037613181614F62493260C6F804808A46A2
S2144040900A603A7005D098F80D3043F0010388F86E
S2144040A00D30A36FDFF890B1002B40F01681524AD6
S2144040B0CBF800401378904613F0040F40F0288168
S2144040C013F0020FA37F00F04381227E023A012ABA
S2144040D040F23E8143F00203A377C1E12046E46804
S2144040E0ABE7828BB7F800E0964534D1428B7C88AC
S2144040F0944230D142681146049A8A422BD10268D3
S214404100944528D15E073FF544AF9D0713D5414BF4
S2144041101D68836AEB1A13D4828D9B1A002B0FDC22
S21440412002993D4B2D4A29448DE810403B48006893
S2144041303B4CA0472DE7DC0742BF3A4B1B68436227
S214404140029B002B3FF425AF837F43F00203837727
S214404150354B98471DE7C0680028C2D1334A1268DD
S21440416014469CB9B889B04741073FF512AF2B6853
S214404170039AD9F8001010881A88014401925B8887
S214404180164A0093244BDBF80000D1E7B4F81AA097
S214404190B7F802E0F24508D1D4F800E0F44500F064
S2144041A04083BEF1000F00F03C832046E468D8E729
S2144041B099077FF5EEAE7A8839881D48DFF87CA0EF
S2144041C0D047627F237F9A423AD32B681948598852
S2144041D0D047DEE65426402041234000A039402008
S2144041E0891740008D13400029354000B923400010
S2144041F0231140002D11400030264020CC4940205D
S21440420058264020E0494020342640204C26402076
S2144042104826402050264020983940202C264020D2
S214404220CD504000D04940202D4E4000D44940203B
S214404230309D4000549D4000E449402015644000B5
S214404240607E914B9847074610B99048D047A0E605
S214404250637F2A68013363778D4B1B680360638BEB
S2144042604383059B1B68436013888383032303763D
S214404270D9F80030591C013B81620163D189A0F80E
S2144042806010D289A0F84E10A0F8622043652369DA
S214404290036163694361237A23F0730303727D4BA2
S2144042A01A681860C2607C4B984701227B4B07F126
S2144042B036001A707A4B9847391D7A4BF88E9847D5
S2144042C01221F8863846784B984720B13146384612
S2144042D0764B98475DE638463AE72046744B984713
S2144042E00A3008D0A36F002B3FF4E1AE714B1B8819
S2144042F0002B3FF4DCAE00247068CBF80040CAF8D0
S214404300004010B16C4B9847746007B0BDE8F08F22
S214404310237E022B0CD1694B226D1B689A4210D12A
S2144043203B7843F008033B70A37F23F00103D3E6BA
S214404330634BA26A1B689B1A03D4A28D9B1A002B60
S214404340EEDD5F4BA26A19685E485F4B984787E090
S214404350DA0604F136005EBF5C4B1B6863620023DE
S21440436084F896304E4B9847237E023B072B77D8EF
S214404370DFE813F00800B6001101150166011101CF
S2144043808901AF0198F8003003F01203122B53D185
S214404390236F1B6958684E4B9847484B01301B6843
S2144043A0984249D1B4F86630A0640133E08EA4F850
S2144043B06630D9F800305A1C013BA26222632A6854
S2144043C0D189A4F86010D28963650423A4F86220DA
S2144043D0E1182376334B9847E08600EB80035B007A
S2144043E0A4F84E30B4F84C30012BB4F8683008BF0F
S2144043F0400003F1FF3308BF80B2A4F86830A4F849
S2144044004C00206F03682367324B9847236F3BB9B5
S2144044104FF6FF73A386D4F8843033B9A37F59E6AA
S2144044200023A38684F84630F5E70022214620691B
S21440443098470A30F2D15EE798F80030DB060FD591
S2144044402B68039AD9F8001010881A8801441B4834
S21440445001925B880E4A00931F4B00681F4DA84789
S2144044603B781A0700F14E81DB0640F15B81A37F63
S214404470DD0600F14E81D4F88C30002B00F04981E7
S2144044806FF00B0143E100BF853140008C9D40003A
S214404490A0394020CC494020551E4000C849402005
S2144044A0A93E4000DD324000B94C4000B1304000EB
S2144044B08533400058264020B92340002C26402013
S2144044C050264020959E400015644000D04940202C
S2144044D02D114000412A400098394020CD504000E0
S2144044E098F80030D80648D59B4B1868A36CDB4339
S2144044F0C34235D4236DC31A002B31DC04239748BE
S214404500237633695A881988954B984763691BB94F
S2144045102046944B9847EEE600222146206998476D
S21440452010B10A30F4D1E6E68F4B2046B4F84C5032
S2144045309847B4F8643013B1013BA4F86430E38E76
S214404540012D04BF5B009BB2A4F84C303B789A0622
S21440455086D5A37F43F00203A377072323767FE71E
S2144045602B68039AD9F8001015881A8829440192B6
S2144045705B887E4A00937E4B70E799077FF570AF65
S214404580A36A7C4A013B126893427FF469AF204697
S214404590794B984764E72046734B9847D6E7724B6B
S2144045A0204698473B7813F0200F98F800303CD0D0
S2144045B0DB0634D5684B226D1B689A422FD133698F
S2144045C06E485A881988664B9847A37F204643F022
S2144045D00203A3776A4B98476A4A13689C4202D103
S2144045E0E36813600CE0684A002113600BB939B1E8
S2144045F0F7E7D86884420FD101B11360E268DA6009
S2144046000122624B1A700A232376614B1A681C609B
S214404610E260604B984723E701210346E6E7A37F25
S21440462043F00203A377082398E7DD067FF518AF2B
S214404630494B226D1B689A427FF412AF06238DE7E2
S2144046402046494B98473B7898067FF509AF336933
S21440465051485A881988424B9847A37F204643F0D2
S2144046600203A377464B9847464A13689C42B7D006
S214404670454A00211360002BB9D0D8688442BBD08D
S21440468001210346F7E7384B2046984798F8003014
S214404690D9067FF5E5AE304B226D1B689A427FF413
S2144046A0DFAE33693D485A8819882D4B9847344BBE
S2144046B020469847334A13689C4291D0324A00219C
S2144046C01360002B93D0D868844295D001210346CE
S2144046D0F7E7254B2046984798F80030DA067FF5EE
S2144046E0BFAE1D4B226D1B689A427FF4B9AE33694C
S2144046F02B485A8819881A4B98473B7843F0100342
S2144047003B70ADE6D4F88C301BB16FF00A012069DF
S214404710984721461B48234B984721460220224B68
S2144047209847E8E5B4F86420002A41D1DAF800203A
S214404730002A46D13B78980606D5A36F002B5DD05D
S2144047405A7B42F020025A7300232046CBF80030B2
S214404750164B9847CFE500BF2C264020B69D40001C
S2144047601564400061314000D1364000A0394020F9
S2144047709839402050264020AD514000DE9D4000F4
S214404780D92A4000CC494020D8494020C84940203A
S214404790E0494020551E40000D9E40003C9E400093
S2144047A0689E4000D52E4000152240002D4E400009
S2144047B0E36F002BBAD02146206998470A30B5D11E
S2144047C099E5A37F13F0100303D01046214B98477A
S2144047D09EE6D4F8805065B121462069A84710F17E
S2144047E00A0F3FF488AD0028A4D0DAF80030A3675B
S2144047F0A0E72B4628462146174DEFE7A38D40F607
S2144048006832D4F8805093421CBF0133A385002DF4
S2144048109AD00023214620691A46A8470A3093D1E9
S21440482069E520B1E668C660E2600C4A1460580745
S2144048303FF5AFAB13F010063FF4BAAC3B88D9F85F
S2144048400000029901937B880144054A0093054B7A
S2144048506CE400BFB923400055334000D4494020A3
S214404860A0394020983940202DE9F84F9DF82880FF
S2144048709A468146042018F0010F0F46164614BF8C
S2144048800425002518F0020F14BF0C2300231D44F6
S214404890244B9847044628B93846234B9847204629
S2144048A0BDE8F88F80F80C804FF000084760142170
S2144048B0C0F800803B89A0F80A805B1B038138461D
S2144048C01A4B9847074620B12046194B984744460E
S2144048D0E5E76368C5F38705DFF85C80D3F804B086
S2144048E00535C4F810B046EA0535B9F81A00C04791
S2144048F0ABF80000D4F810B0B9F81C00C047ABF8CD
S2144049000200D4F8109050460A4B9847C9F8040065
S214404910D4F81090A8B2C047A9F80C0023699F7439
S214404920DF74BCE7D9214000B92340004123400052
S214404930412A4000291140001D1140001431164BF9
S2144049402DE9F04189B2054690460120002298475D
S2144049500746E8B14468114E688BB0472080A88B64
S214404960B0470F4B6080C4F80480A86A9847A060A0
S21440497045F21000B047A081E88DB0470023E081A3
S21440498023746374A374E374EA8DAB6A13442B6395
S2144049903846BDE8F08100BF012440001D114000AC
S2144049A0291140002DE9F04F8BB0074692460993F7
S2144049B0069139B9AD4B40F27F12AD49AD48AE4C89
S2144049C0A047FEE7037E072B03D0023B022B00F2F4
S2144049D04881BAF1000F0ED0B7F86630534506D27C
S2144049E0BB7F63F07F03BB774FF0FF303BE1B7F808
S2144049F06830072BF4D8B7F86230FA8E5B08FC6E46
S214404A009342A04628BF13460793B7F868300493EE
S214404A1034B92646A146A34625465EE0DDF80C801E
S214404A20D8F800300393002BF8D198F80C30B8F83B
S214404A30085013F0010F0799B7F86A6014BF0422B4
S214404A400022491B13F0020FA1EB020114BF0C23F6
S214404A500023C91A89B2002E00F02681B245D146FD
S214404A60444628BFB146A6EB0906A1EB0901CA4554
S214404A70B6B289B240F2128100295ED0002D5FD0D6
S214404A80AAEB0904002203207C4B8C42A8BF0C46AC
S214404A90984705461FFA84FB00287DD046895A462B
S214404AA0A0F808B04446A6EB0B06A0F80AB0B8F843
S214404AB00A30CB44B6B21FFA8BFB3344A8F80A3010
S214404AC0069B406803EB09016D4B98476D4B2846A3
S214404AD09847049B03449BB2049300230393089394
S214404AE0D3452FD3B9F1000F10D0D8F804B0644B9B
S214404AF0BBF1000F7AD1B8F808304B44A8F808301C
S214404B00B8F80A30A3EB0909A8F80A90A7F86A6033
S214404B10002D00F085805C4B2946D8F80400984765
S214404B20B8F808302A891344A8F80830039BC8F818
S214404B3000307AE0B14634469EE7CB460D46CCE799
S214404B40CB46CAE7AAEB0B03079A07999BB2934258
S214404B5028BF1346002205931046484B9847044604
S214404B60D0B14689059B059AF61ABDF814300381E4
S214404B70B6B24381069B406803EB0B01404B984717
S214404B80404B20469847049B03449BB2082B049313
S214404B9012D920463D4B9847BB7F63F07F03BB77D7
S214404BA015B12846394B9847039B002B3FF41CAF62
S214404BB01846374B984717E7FB6D00222146384684
S214404BC0344C5B440092A04704460028E4D0039B44
S214404BD046813BB1089B1860059B08949B441FFA8E
S214404BE08BFB7DE70390F7E7039D7EE7BBF8082045
S214404BF04A44ABF80820DBF8002072B9BBF80AE05C
S214404C004A46DBF804000699704405939847BBF87B
S214404C100A20059B4A44ABF80A20DBF800B067E759
S214404C20B8F1000F82D1039BFB66FB6D5344FB65D6
S214404C30B7F86630A3EB0A0ABDF81030A7F866A0AE
S214404C40A7F868305CB124694CB1099B13F00206A2
S214404C5005D1A5890820104B98472843A0810020FD
S214404C6001E06FF00C000BB0BDE8F08FCA9F40002B
S214404C7003A04000A3954000156440000124400076
S214404C809D6440007925400095254000B9234000AA
S214404C90692A4000694840001D114000B9F1000FE4
S214404CA0A2D1A7F86A6041E7BAF1000F7FF442AF9D
S214404CB056465446F5E700BF73B5B0F8683004462C
S214404CC00D46072B06D9A37F63F07F03A3774FF0EB
S214404CD0FF3039E001F00203002BB0F8663015BF14
S214404CE00126002604210021002BF0D000221A4B7A
S214404CF01046984701460028E5D000962A46E36DC0
S214404D002046164EB0470028DDD0E36EFBB9E0667D
S214404D100023AA07A4F86A3007D0E36D0133E365A1
S214404D20B4F86630013BA4F86630EB0742BFA37F79
S214404D3043F02003A3770A4B40689847B4F868309E
S214404D401844A4F86800002002B070BD13461A68E4
S214404D50002AFBD11860DBE7012440006948400088
S214404D60792540002DE9F041C46E054634B9284601
S214404D7001210E4BBDE8F04118471C462368002B26
S214404D80FBD1236998890A4B984710F00707EED164
S214404D9026690120074BB48998472043B08138469E
S214404DA0AB7F43F02003AB77BDE8F081B94C4000C1
S214404DB0231140001D1140002DE9F3410446164BD7
S214404DC0006D984700210246144B204698470546FA
S214404DD0F8B1A37F261D4768214623F003033246D9
S214404DE0DFF84480A377038900930623C047062252
S214404DF038822146A37A28460192627A084C00926D
S214404E003246A0472846074B9847002002B0BDE8E8
S214404E10F0816FF00100F9E7291140003D4940005C
S214404E2049174000B92340008D1340009B4B2DE9A5
S214404E30F04F1B6885B00446834229D0B0F84C300A
S214404E40B0F86080C56E984528BF9846837F9B071C
S214404E5010D52DB92046924B05B0BDE8F04F184707
S214404E602B6958688F4B98472B89A26C9B1A18441D
S214404E708045EFD3266F86B9DFF840A2002D3FD19C
S214404E80E36E0BB9A4F86A30A37F03F07F03A377E1
S214404E90002005B0BDE8F08F1E463368002BFBD1DE
S214404EA0EAE72B6958687F4B9847336981465868CC
S214404EB07C4B9847A9EB000000281BDA04F17009E8
S214404EC0D9F8003033B9D9F800302B60C9F8005013
S214404ED0E56ED3E71B695868724B98472B69834643
S214404EE05868704B9847ABEB00000028EBDAD9F8CF
S214404EF00090E5E73560CAE028466B4B9847E7E701
S214404F002B695868674B98472B89A26C9B1A1844A4
S214404F108045B5D3236F9BB1A27F12F0440F0FD1CB
S214404F20E36E2BB1196859B91989E38E994207D2B5
S214404F30B4F8663023B1B4F86830072B40F2A98045
S214404F402B68E366237E022B0DD0D5F810B01020D8
S214404F50BBF80C90D04749EA0000ABF80C00A37FA2
S214404F6023F00303A377D5F81090A06ADFF850B17A
S214404F70D847C9F80800D5F81090E08DD047A9F872
S214404F800E00E28D04F10409A36A134423632B7BCD
S214404F9013F0010F0BD02B694946444A40F2B450F7
S214404FA00393904740F00170D847039B5861B4F98B
S214404FB03430013304BF0023A386236833B9484600
S214404FC03B4B9847002835D043682360A36B3BB9DA
S214404FD0384B1B68A3632B695868324B9847E0638D
S214404FE06A682B695168344F5B1A51899BB2C91A5B
S214404FF0518169680A89D31A0B8121466B682A69F0
S2144050005A6000222B691A745A744A466868D5F862
S21440501010B0038900930623B8470622ABF8100069
S21440502021460192627AA37A00924A466868DFF87F
S2144050309490C8472B69DFF890905868194B98476A
S2144050402B892A69834603939089C84710F003004A
S214405050039B18BF01201844236D58441B1A002B8D
S2144050604B46B8BF20652A69B5F80890908998479E
S21440507010F0030018BF012010EB090F3FF43CAFBF
S21440508000232B60236F002B7FF40BAF25672E4643
S2144050901EE712F0A00F7FF453AFF1E6E44940203C
S2144050A0B94D40002D114000412A4000DD324000FD
S2144050B079144000D04940208D1340001D11400017
S2144050C02911400049174000231140002DE9F74FB1
S2144050D081468A4617469846002214210120204BD6
S2144050E0BDF83060BDF834B09847054628B91D482D
S2144050F01D4B03B0BDE8F04F1847446830461B4E82
S214405100B04720805846B04760804846DFF86890F1
S214405110C84760605046C847A06045F21400DFF8B4
S2144051205C90B0470B230026A081A37368232674A7
S2144051304246E373394666742846A674E6742B895D
S21440514000930623C84706232082424601933946E9
S214405150FF2300962846064CA0472846054BC8E73E
S214405160012440009D9F4000156440001D114000F2
S21440517049174000B9234000291140008D134000D4
S214405180026F0AB970471A461368002BFBD1C16EEE
S2144051901160026F8363C26690F84620036701324F
S2144051A0014B80F8462018472D4E40002DE9F0412F
S2144051B0056F0446ADB12B6800F16C06DFF8408001
S2144051C0036733687BB933682B6035602B680BB94F
S2144051D0A4F86A3094F84630013384F84630002309
S2144051E0A363BDE8F0811B695868C0472B69074632
S2144051F05868C047381A0028E5DA3668E1E700BF45
S2144052002D114000036F10B504461BB3837F5B0728
S21440521020D4114B9847B4F84C30B4F860209342F1
S21440522096BF5B085208A4F84E30E38E88BFA4F8B9
S2144052304E205A00B4F84E1091421344B8BFA4F81A
S2144052404E20B4F84E201344A4F84C30A37F43F0CD
S2144052500403A37710BD00BFAD5140002DE9F743CE
S2144052600446837942790179C0791F4D00901F48E2
S214405270A8471F49626A096894F896301D48A847AF
S214405280206D1D4B01389847002102461B4B204697
S2144052909847064628B91A482B4603B0BDE8F0435F
S2144052A01847271D0389D0F80480214600933A46C4
S2144052B00623DFF85C90C84700210622A8F81000B5
S2144052C03046A37A8DE806003A4621460D4FB84749
S2144052D030460D4B9847216DA26A2B4601390B4844
S2144052E003B0BDE8F043184715644000CA9E40002E
S2144052F0D0494020059F4000291140003D494000CC
S214405300479F400049174000B92340007A9F40001D
S2144053108D1340002DE9F74304468379427901799D
S214405320C079344F00903448B847344994F89630A2
S214405330626A09683248B847266F16B9E66E002E8C
S21440534055D0336998892F4B984710F0010533693B
S214405350204618BF35895A6818BFB5FA85F52A4BD6
S21440536018BF6D0985F001019847804628B927483F
S2144053703B4603B0BDE8F0431847D0F804905DB311
S214405380B9F90C501120224B25F47C5598472843F8
S214405390A9F80C00251DB8F8083021464046009371
S2144053A02A4606231B4EB04700210622A9F81000C5
S2144053B04046A37A8DE806002A462146164DA84761
S2144053C04046164B9847216DA26A3B460139144821
S2144053D003B0BDE8F0431847706809F114013289FC
S2144053E00389104D9B1A01229BB2A847D2E703B00F
S2144053F0BDE8F0831564400034A04000D04940200A
S21440540079A04000231140003D494000C3A0400021
S2144054101D1140008D13400049174000B92340003D
S214405420EEA04000D1264000704700002DE9F04F26
S214405430D0F804808A46038985B098F8001005465F
S21440544001F00F018A1CB3EB820F05DB8900484B45
S21440545049429847044628B12846464B05B0BDE821
S214405460F04F1847DFF820B151466E68DBF8000071
S214405470414B9847414B0746308803939847039BD8
S2144054808146708898473E4BDBF8001084461B6880
S214405490A34603933B4BD3F800E0039B2BB924BBB6
S2144054A0DAF804309942D7D11FE05A8A62453FD194
S2144054B01A6807B952B18A4208D0002F38D02AB1AC
S2144054C04A401046DAF80820104231D124B91A7CF6
S2144054D012F0040F08BF1C469A8A4A4528D15A68DB
S2144054E022BBBBF1000F26D11C46F3884BB12B895B
S2144054F02846254A009311232249244EB0470028C7
S214405500AAD16FF007012846194EB0470028A3D10C
S214405510CCB1A669002E9FD0CDF800902A46194BF4
S2144055202146E069B04705B0BDE8F08F7245D8D057
S2144055309B46DB68B2E7DA68CBF80C20039ADA6061
S2144055400F4A1360D0E7002F86D10F4B1B6803F03D
S214405550F003E02B80D098F80010284601F00F01A9
S21440556002318900B04703212846094B984773E724
S21440557041234000B92340008917400023114000D2
S214405580E849402098394020A03940208D134000FB
S2144055900D13400070B51426094D04464643A859DD
S2144055A018B1084B98470023AB511420002300FB4A
S2144055B004508374C37483604360C360038270BDC9
S2144055C05C264020B92340002DE9F74F314B0A2294
S2144055D0054600201446964681468446834616462F
S2144055E0984601910A2C9F7C0FD187B944B201306E
S2144055F014330A28F6D1019B990703D40A2C1CD1F0
S214405600DB0729D44FF0FF3009E0002FEFD0002D04
S21440561033D029688A4659688A452ED140B203B0AD
S214405620BDE8F08FDA45E2D346B2D346DFE7E2453F
S21440563024BF4FFA80FED446D9E7E4B225B11423FE
S2144056402A6803FB04835A60142360B203FB048871
S214405650002388F81330E2E7BEF10A0F05D05FFA60
S2144056608EF420460C4B9847E8E70A2E01D0F4B259
S214405670F7E70A2AC6D0D4B2F3E7012F93F813A06F
S214405680D5D11F68002FCDD0CA45B0D342B2D1463F
S214405690ADE700BF5C2640209555400030B41D68FD
S2144056A04C6825609B88A3801368C4F806309388AE
S2144056B063810823237300236373836930BC1847D0
S2144056C0F8B50D4C00250D4E0227A27C5AB1E37C5E
S2144056D00133DBB2EF2BE37403D8012A08D1012B48
S2144056E001D92846B047013514340A2DEDD1F8BD0E
S2144056F0032A08BFA774F6E75C264020955540006D
S2144057002DE9F04100220646884603202A21214BF7
S2144057109847054600283AD0446801201E4B9847D3
S214405720A082D6F8273004213046C4F81630B6F8A2
S2144057302B306383194B1A689B882262A384184BCC
S2144057401A689B8822600122A380D6F82730C4F8C6
S2144057500630B6F82B3063817368E361D8F80030C2
S214405760E2730822C4F826300023E1742946A37366
S214405770637406232274A37422736373B3699847D1
S214405780084B0446284698472046BDE8F0814FF02F
S214405790FF34F9E7012440001D1140001FA14000DE
S2144057A019A14000B92340002DE9F0410F46114DA4
S2144057B014211446064601FB025898F81220022A85
S2144057C00BD198F81330E32B07D941460A4B0431E6
S2144057D0984710B9032388F81230142306F127029D
S2144057E03946304603FB0453044C0C33A446BDE80C
S2144057F0F04160475C264020015740009D564000DF
S2144058002DE9F0418846074601463B4BD8F8000054
S21440581015469847002852D1D8F8003003F0F002D9
S214405820E02A4CD0002B4AD001214046334B9847C3
S214405830041E48DB324E142303FB0462917C09B9F4
S2144058400121917403FB04639B7C012B00D035B986
S214405850414638462B4B98471DB9BDE8F0814FF07E
S214405860FF30142303FB0462927C012A0ED9264A99
S2144058702946384614700C2213FB0423234C07F1A8
S21440588027023344A446BDE8F041604731D12B4659
S21440589083B928461E4B98473DB32F46142363438F
S2144058A0F05808B11B4B9847142300205C433751EF
S2144058B0BDE8F0811A7B012A08D11B68E8E76FF043
